:10000000980D0020F14600001B48000099450000B3
:100010001F4800002348000027480000000000009F
:100020000000000000000000000000002B4800005D
:100030002F48000000000000334800009B2F000004
:100040007B0F00007B0F00007B0F00007B0F000088
:100050007B0F00007B0F00007B0F00007B0F000078
:100060007B0F00007B0F00007B0F00007B0F000068
:100070007B0F00007B0F00007B0F00007B0F000058
:100080007B0F00007B0F00007B0F00007B0F000048
:100090007B0F00007B0F00007B0F00007B0F000038
:1000A0007B0F00007B0F00007B0F00007B0F000028
:1000B0007B0F00007B0F00007B0F00007B0F000018
:1000C0007B0F00007B0F00007B0F00007B0F000008
:1000D0007B0F00007B0F00007B0F00007B0F0000F8
:1000E0007B0F00007B0F00007B0F00007B0F0000E8
:1000F0007B0F00007B0F00007B0F00007B0F0000D8
:100100007B0F00007B0F00007B0F00007B0F0000C7
:100110007B0F00007B0F00007B0F00007B0F0000B7
:100120007B0F00007B0F00007B0F00007B0F0000A7
:100130007B0F00007B0F00007B0F00007B0F000097
:100140007B0F00007B0F00007B0F00007B0F000087
:100150007B0F00007B0F00007B0F00007B0F000077
:100160007B0F00007B0F00007B0F00007B0F000067
:100170007B0F00007B0F00007B0F00007B0F000057
:100180007B0F00007B0F00007B0F00007B0F000047
:100190007B0F00007B0F00007B0F00007B0F000037
:1001A0007B0F00007B0F00007B0F00007B0F000027
:1001B0007B0F00007B0F00002DE9F04F0FF6A03CF5
:1001C000A1B0DCE90089CDE900892A9DDFF8F49827
:1001D000049100248DF843500D944FF0FF3882466F
:1001E00016461F460FE0B3462C461BF8011B049829
:1001F000D0470028049000F0A3800D98401C641E96
:100200000D90F2D176193078252808D100210022EE
:100210000791089209910A920B910C920DE06A469F
:100220004146304600F03EFE050001D10D9899E0B0
:10023000D9D50125E6E741F0010116F8010F202884
:10024000F9D023280CD02B2804D02D2805D0302815
:1002500009D077E041F00201EFE741F00401ECE75B
:1002600041F00801E9E741F01001E6E70F9209E0EB
:100270000F98484505DA00EB800402EB4402303A5F
:100280000F92761C3278A2F130000A28F0D3307831
:100290002E2818BFCDF8388022D116F8010F2A2851
:1002A00007D138683860761C50F8042B38600E92FD
:1002B00016E02D280CBF761C002000220E920AE0CA
:1002C00040B90E9A4A4505DA02EB820403EB440377
:1002D000303B0E93761C3378A3F130020A2AEFD319
:1002E000ADF840100FF68020317800F0E3FD08B142
:1002F00016F8010B8DF842009DF84200682804D1E1
:10030000307868280AD1622105E06C2804BF307873
:100310006C2803D171218DF84210761C12A806902A
:100320003A4616F8013B02A9504600F05BF838B98E
:1003300012AA02A9504600F085F900287FF563AFA4
:1003400040460FE02A2891D13A683A6052F8040BEF
:100350003A6000280F9003D540420F9041F004010D
:10036000761C94E721B0BDE8F08F622820D0682881
:1003700011D06A2803D06C2827D0712825D10868AD
:10038000C01D20F007000860D0E900230830086095
:10039000194610467047002A0A680A60106803D0A0
:1003A000121D0A6000B217E0121D0A6080B217E049
:1003B000002A0A680A60106803D0121D0A6040B261
:1003C0000AE0121D0A60C0B20AE0002A0A680A6048
:1003D000106803D0121D0A60C1177047121D0A6011
:1003E0000021704770B51C460D46B4F125002E69FA
:1003F000114600F015812038022863D9133840D007
:100400000B3816D0401E1ED0401E02285AD9001F9D
:1004100019D0401F00F08180401E32D0401E00F0F5
:10042000CB80C01E00F0DA80801E2AD0C01E28D0EB
:10043000FCE06869421C6A610A680A6052F8043B81
:100440000A603354FCE095F83A000122FFF78DFF73
:10045000C5E90001002904D56869411C69612D22A4
:100460000DE0288F810704D56869411C69612B2242
:1004700005E0C00721D56869411C6961202232541A
:100480001BE095F83A000022FFF76FFFC5E9000175
:1004900095F83800010710D5D5E90023002B08BFD7
:1004A000002A0AD044F02000782806D1686930215B
:1004B0003154401C421C6A613454214668693044FE
:1004C000E86087E00868C01D20F007000860D0E9F8
:1004D000002308300860C5E90023D5E90001C80FF2
:1004E00004D06869411C69612D220DE0288F8107C5
:1004F00004D56869411C69612B2205E0C00704D559
:100500006869411C69612022325468693044E8609E
:100510002146284600F0B9F992E005F13A025078F8
:1005200020B14FF0FF340FF6480062E010786228E7
:1005300008D0682824D06A2812D06C282ED07128C0
:100540000ED02BE00A680A6052F8040B0A6020B94A
:100550004FF0FF340FF630004BE0E96A01706FE0B6
:100560000A680A6052F8040B0A6020B94FF0FF34A1
:100570000FF614003DE0EA6AD317C0E900235FE0FC
:100580000A680A6052F8040B0A6020B94FF0FF3481
:100590000FF2F4702DE0E96A018051E00A680A6008
:1005A00052F8040B0A6020B94FF0FF340FF2D870F4
:1005B0001FE0E96A016043E00A680A6052F8040B30
:1005C0000A60002120F0000221F0FF33C5E900237A
:1005D000EE607821284600F0B0F831E00868086045
:1005E00050F8044B0860EC603CB94FF0FF340FF258
:1005F000B07000F087FC201A70BD2E6B002E04D561
:10060000204600F09FFC044608E0324600212046C8
:1006100000F0B4FC002814BF041B3446AC610FE0AA
:100620006869411C69612522325409E06969481CE6
:10063000686125227254210002D0431C6B6134543E
:10064000002070BD2DE9F0410E4605469046726BC4
:100650007069316AB46A121AB069521A716A121A50
:10066000F069521A121A96F83800141B41070DD47B
:10067000002C0BDD2746B0682021A8470028B06079
:1006800057D0F06A401C7F1EF062F4D17369424675
:100690003146284600F04CFB00284AD1376A002F2B
:1006A0000ADDB0683021A8470028B06041D0F06A68
:1006B000401C7F1EF062F4D1B369F26831462846CF
:1006C00000F036FBA8BB776A002F09DDB068302147
:1006D000A847B06068B3F06A401C7F1EF062F5D195
:1006E000F068B169F36942183146284600F020FBF2
:1006F000F8B9B76A002F09DDB0683021A847B060AB
:10070000B8B1F06A401C7F1EF062F5D196F838004F
:1007100041070BD5002C09DDB0682021A847B06047
:1007200038B1F06A401C641EF062F5D10020BDE8CB
:10073000F0814FF0FF30BDE8F0812DE9FC43074622
:100740006F293E6908BF082405D041F020007828B1
:1007500014BF0A2410243C25D7E90023642918BFBC
:1007600069299046994605D1002B03D5D8F1000898
:1007700069EB4909B9F1000F08BFB8F1000F1FD1AB
:10078000386BE8B9082C4CD197F83800010748D5E8
:1007900030203B2586F83B0043E000280ED597F833
:1007A000380000F01400102808D17B6B7969386A92
:1007B0005B1A1B1A9A1A002AC8BF3A62BDE8F38373
:1007C0008DF80010404649462246E31700F002FC2F
:1007D0003032D0B26D1E3A28019504DB9DF800003E
:1007E000A0F151018A187255404649462246E31746
:1007F00000F0F0FB80465FEA010908BFB8F1000F86
:1008000003D0F86871198842DCD3082C09D197F815
:100810003800010705D5705D302802D06D1E3020EC
:100820007055C5F13C02BA617119F960386B8242AA
:10083000B3DA821A3A624FF6EF70398F0140398786
:10084000BDE8F3832DE9D04306460F4614464FF02A
:100850000008DFF8749212E0E00707D542464B46E5
:100860003046394600F0CEFC06460F464046494623
:1008700042464B4600F0C6FC641080468946002C78
:10088000EAD130463946BDE8D0832DE9F047064627
:1008900089468EB0D6E90001CDE9020104AC306B87
:1008A000002802D50620306305E001BF49F0200092
:1008B000672801213163D6E9002358004015401C08
:1008C0000DD119030BD0A9F1610103201A29B061E0
:1008D00002D20FF2E84110E00FF2E4410DE05900BE
:1008E0004915491C0ED118030CD1A9F1610103204F
:1008F0001A29B06116D30FF2D041F068032200F03C
:1009000053FDDBE023F00047B7F5801F1046194682
:1009100022F000050DD20022002F08BF002D019209
:1009200003D116E00FF29C41E7E701AA00F090FD29
:1009300008E06648664900EB17500190654803409F
:1009400010461943019B644D47F29752534393FB62
:10095000F5F2C6E9000120F0000331F0004104BFC8
:10096000002B002300F0A280DDE90240019220F07C
:100970000045D2F1070204DD20462946FFF762FF59
:100980000AE0524200205549FFF75CFF02460B4641
:100990002046294600F094FD044649F0200ABAF1A9
:1009A000660F306B06BF019D0A3506252D18142DE4
:1009B000C8BF1425302088468DF810000DF11107AE
:1009C000002D33DD2046414600F09EFE01460A46DA
:1009D00007F1080304200A27B2FBF7F707EB870E9D
:1009E000A2EB4E02303203F8012C0A22B7FBF2F2DE
:1009F00002EB820EA7EB4E073037401E03F8027D54
:100A0000E9D1083D002D03F10807D9DD084600F0C3
:100A10008FFE02460B462046414600F097FE00221C
:100A20002F4B00F0EFFB04468846CBE70DF1110099
:100A30003F1A0DF1110404E00198401E7F1E019041
:100A4000641C20783028F7D0BAF1660F02D10198E3
:100A5000401C04E0BAF1650F0CBF01200020336B8D
:100A6000C3189F42B8BF7B1E002B1ED4BB4204DAC2
:100A7000E05C3528A8BF392000DA30201946621E14
:100A800002EB010800E05B1E18F80179491E87425D
:100A9000F9D0392802D1605C401C6054002904D58B
:100AA0000198401C14465B1C0190019800B2009014
:100AB0001BB222464946304600F014F80EB0BDE89D
:100AC000F0870000CBCCCC0C0000244002FCFFFFE0
:100AD0000000E03FFFFF0F80A08601000000F03F14
:100AE00084D797412DE9F84783B005468A46914659
:100AF000984600F0D9F9B8F1000F406A2F6B0678DC
:100B000003DC4FF001080FF2C4294AF02000BDF9C0
:100B10003040662808BF641C13D0672840F08F80DF
:100B200014F1040F7ADBBC4278DA95F83800641CC3
:100B3000010702D4B845B8BF474620B23F1A48BFA4
:100B400000270FFA84FAE868A969BAF1000F23DCDC
:100B50004A1C30234354002F03DC95F8380001076A
:100B600002D5E8688654521C17EB0A0FB8BF7C42C6
:100B700024B2E71960424745B8BFB846AA61686227
:100B80000FFA88F4EC61E868AB69224649461844DC
:100B900000F00AFC3F1B18E022B29045084416DA28
:100BA0004246494600F000FCA8694044A861AAEB0F
:100BB0000801002F696203DC95F838100A0704D594
:100BC000E9680E54E869401CE861AF6299E0494663
:100BD00000F0EAFBA869002F5044A8EB040803DCEE
:100BE00095F838100A0702D5E9680E54401CA86130
:100BF0000FFA88F08742EB68A869B8BFB8460FFAC9
:100C000088F209EB0A01184400F0CEFBA9690FFA3B
:100C100088F00144A961381A686272E0B84504DAC4
:100C200095F838100A0758BF47467F1E48BF00276F
:100C3000BAF1670F0CBF4FF0650A4FF0450AA9697A
:100C4000EB68481CA861002F19F8012B5A5403DCEB
:100C500095F838100A0719D5E968431CAB610E54A2
:100C6000002F13DDA8F1010630B28742D5F80CC081
:100C7000B8BF3E4632B249460CEB030000F094FB8D
:100C8000A86936B23018BF1BA8616F62E868A9690D
:100C90000844002C80F800A003D42B224270811C51
:100CA00003E02D2141706442811C00206A460AE065
:100CB00023460A2493FBF4F404EB8406A3EB4603D7
:100CC00002F8013B401C24B2002CF1DC012806DCB8
:100CD0004AF02002652A04BF302201F8012B48B9EE
:100CE000302001F8010B07E0401E1DF800303033C2
:100CF00001F8013B0028F7DCEA68A8691044091AEA
:100D0000E96195F8380000F0140010280DD16A69E7
:100D1000A969686A8A18E9698218A86A8A18821813
:100D2000686B8242BCBF821A2A6204B0BDE8F087B9
:100D3000F8B505460E4617461C46002074B117F854
:100D4000011BB068A847B06030B1F06A401CF06287
:100D50000020641EF3D1F2BD4FF0FF30F2BD000061
:100D60000000000000000000686A6C747A4C00000B
:100D70007072696E74665F733A20256E20646973C1
:100D8000616C6C6F776564007072696E74663A208E
:100D900062616420256E20617267756D656E7400F6
:100DA0007072696E74665F733A20626164202573A5
:100DB00020617267756D656E740000006E616E0073
:100DC0004E414E00696E6600494E46003000F0B458
:100DD0000246106895681318506803EB5004C0076A
:100DE0001DD54D441BE013F8017B05F8017B491E1E
:100DF000F9D1A0B1B60813F8011B06F00306032EC3
:100E000008BF13F8016B01EB06214942801C2944FD
:100E100005D011F8016B05F8016B401EF9D1A34212
:100E20000ED013F8016B16F0030104BF13F8011B79
:100E3000C91C30090F28DAD113F8010B0F30D6E79F
:100E4000F0BC02F10C00704770B45368D418042B46
:100E500009DA41B1057804F8015B10F8016B16B1AD
:100E60005B1C491EF3E7536070BC704738B51446ED
:100E70001D4661B1FFF7E8FF61686A6B2046904745
:100E80006FF00102811A02D0491E01D001E003E097
:100E900005E00021616032BD6FF0010032BD4FF00E
:100EA000FF3032BD014BE1E701487047EC080020FC
:100EB000B4080020C9B202788A421AB11CBF10F8E7
:100EC000012FF9E718BF0020704730B4002513E068
:100ED00050F8042BD30744BFA9F101039A18091F46
:100EE000042942F8045BFAD213468C0744BF1580EC
:100EF0009B1CC90748BF1D7050F8041B0029E7D18F
:100F000030BC704780B500B906A005490B681BB11D
:100F100022220021984701E000F089FC222002BD36
:100F200094090020636F6E73747261696E74206837
:100F3000616E646C65723A20626164206D657373E2
:100F40006167650000F10103810704D010F8011BFF
:100F5000820781B1FAD10268A2F10131914311F007
:100F6000803104BF50F8042FF6E709BAB1FA81F1D5
:100F700000EBD100401CC01A7047FEE7C9B28307DE
:100F800006D0521E22D310F8013B9942F7D11FE040
:100F9000083A13D302F1040241EA012141EA014176
:100FA00050F8043B121F21BF4B40A3F1013C2CEA37
:100FB000030C1CF0803FF3D0C9B2001F083210F8B8
:100FC000013B521E28BF91EA030FF8D818BF012039
:100FD000401E7047BBBBE1B1B2F5803F80F07E8020
:100FE000022A1ED98C46B1FBF2F102FB11C31B048D
:100FF00043EA1043B3FBF2FC02FB1C3380B240EA2D
:101000000343B3FBF2F002FB103240EA0C40002332
:101010007047022A05D98446B0FBF2F002FB10C2E9
:1010200070474AB105D100F0010249085FEA30007B
:10103000704700220023704700F0FCBB0B00020049
:10104000002100207047904271EB030CF6D3B3F5FA
:10105000803F2FD2F0B5B3FA83F7B1FA81F4A7F14C
:101060000F0E3D1B5340CEF1200602FA0EF2F34163
:101070005340B5F10F0746D80F3C2C444140C4F112
:101080002006A040F1414140B1FBF3F603FB1611ED
:10109000A2FB0645001BA94102D2761E80185941C9
:1010A00080EA010221FA0EF362FA0EF200215A40A0
:1010B0003046F0BD30B4B1FBF3FC03FB1C11A2FBC6
:1010C0000C45001BA94103D2ACF1010C8018594119
:1010D00030BC02460B46604600217047B2F1807F6B
:1010E00065D3F0B5B2FA82F7B1FA81F4C7F10F0611
:1010F0003D1B22FA06F307F1110EF24120355A404A
:10110000B5F10F07B8D94140C4F12006A040F14124
:101110004140B1FBF3FC03FB1C11A2FB0C45001B7F
:10112000A94103D2BCF1010C801859410F2F12D3F1
:101130000F3FC90341EA5041B1FBF3F603FB16111F
:10114000A2FB0645D4EBC030A94102D2761E80181E
:10115000594146EACC3C07B34140C7F12006B840AC
:10116000F1414140B1FBF3F603FB1611A2FB06452A
:10117000001BA94102D2761E8018594180EA010263
:1011800021FA0EF3C7F1200462FA0EF20CFA07F00E
:101190005A402CFA04F13043F0BD80EA010221FAF2
:1011A0000EF3002162FA0EF260465A40F0BD8C4602
:1011B000B1FBF2F102FB11C31B0243EA1063B3FB64
:1011C000F2FC02FB1C331B024CEA002043EA1063D2
:1011D000B3FBF2FC02FB1C331B024CEA002043EA87
:1011E0001063B3FBF2FC02FB1C331B024CEA002031
:1011F00043EA1063B3FBF2FC02FB1C324CEA002012
:1012000000237047B0B581EA030C0CF0004C40F2AB
:10121000FF7515EA11541DBF15EA1357AC42AF42D2
:1012200039E0E41923EA455343F48013C90241F03D
:10123000004141EA505EC7021100A7FB02020028EC
:101240004FF00000EEFB01204FF00001E3FB07210F
:1012500018BF42F00102401800214941E3FB0E0192
:10126000A4F580640F0302D252004041494154F179
:1012700001046CDD470872F1004250F1000051EBAF
:101280000451A1F580115CBF41EA0C01B0BD4CEAEC
:1012900005510020B0BD05EA1357AC4214BFAF4260
:1012A00041E050EA410E1CBF52EA430E02E06146A3
:1012B0000020B0BD24423C441BD15FEA070EF6D0AB
:1012C000090302BF01460020AEF1140EB1FA81F706
:1012D000AEEB070401FA07FE0C37C7F1200100FA54
:1012E00007F7C8404EEA000E23EA455343F4801343
:1012F000A2E733F00043B3FA83F704BFB2FA82FEE9
:1013000077440B3FE41BB7F1200E2FBF02FA0EF318
:10131000BB40C7F1200E22FA0EFE38BF43EA0E038F
:10132000BA40641C82E750EA410E14BF52EA430EF1
:101330006FF000014FF4001717EB430F8ABF1946F7
:1013400017EB410FB5E74CEA05510020B0BDD4F1D1
:101350000104B4F120070FDAC4F12007520828BFB6
:1013600042F0010210FA07F501FA07F7E1BF2A433C
:10137000E0403843E1400FE0352C98DCC7F1200411
:1013800052EA400220FA07F218BF42F0010231FA95
:1013900007F0A1400A43002172F1004250F1000021
:1013A00051EB0C01B0BD000062B38B0708D0521E98
:1013B00011F8013B00F8013B00F024808B07F6D1C7
:1013C000830740F0208000BF103A07D330B4B1E863
:1013D0003810103AA0E83810F9D230BC530724BFB7
:1013E000B1E80810A0E8081044BF51F8043B40F8E9
:1013F000043BD20724BF31F8022B20F8022B44BF54
:101400000B7803707047121F17D35B0009D151F896
:10141000043B20F8023B1B0C121F20F8023BF6D2C3
:101420000BE051F8043B00F8013B1B0A20F8023B9B
:101430001B0C121F00F8013BF3D238BF121D521EC5
:1014400024BF11F8013B00F8013BF8D870470000B9
:1014500010B5144600F002F8226010BDC1F30A5323
:1014600043B14A0012F5001F28D2A3F2FE32A1EBCD
:101470000251704750EA410C20D001F0004C31EA93
:101480000C01B1FA81F204BFB0FA80F3D2180B3A22
:10149000B2F120032CBF00FA03F1914041EA0C01A4
:1014A0003EBFC2F1200C20FA0CF319439040524287
:1014B00040F2FD33D21A01EB03517047002270470E
:1014C000F0B540F2FF7581EA030C0CF0004C15EA10
:1014D00011541DBF15EA1357AC42AF42E5E0BC41C1
:1014E000C1F31301C3F31303801A994143F480132A
:1014F00004D2641E4000494180185941C90241EAA2
:101500005051B1FBF3F603FB1611A2FB0675D7EBA6
:10151000C020A94102D2761E80185941C90241EA71
:101520005051B1FBF3FE03FB1E11A2FB0E75D7EB6E
:10153000C020A94103D2AEF1010E801859418902A1
:1015400041EA9051760546EA8E2EB1FBF3F603FB95
:101550001611A2FB0675D7EB8020A94102D2761E98
:1015600080185941C90241EA50514EEA060EB1FBBA
:10157000F3F603FB1611A2FB0675D7EBC020A941B9
:1015800002D2761E80185941C90241EA5051B1FB7E
:10159000F3F703FB1711A2FB0735D3EBC020A941DA
:1015A00067F100070CBF004247F0010766F3D5273B
:1015B0004FEA1E31B80814F5806412DDBD0775F1DD
:1015C000004250EB0E5051EB045111F5801F5CBFEF
:1015D00041EA0C01F0BD4CF07F6141F0E041002098
:1015E000F0BDBD076D0840EA0E5041F48011D4F102
:1015F0000104B4F120060ADAC4F120060200E0403A
:1016000001FA06F3E1401843B24015430EE0342CD2
:1016100013DCC6F1200445EA40056D0820FA06F205
:10162000154321FA06F0A1400D43002175F1004257
:1016300050F1000051EB0C01F0BD00205FEA0C01FD
:10164000F0BDCFB992185B41B3FA83F704BFB2FA89
:1016500082F6BF190B3FB7F120062FBF02FA06F33F
:10166000BB40C7F1200622FA06F638BF3343BA4022
:101670001CB1E419641E33E77F4231F00041B1FA36
:1016800081F404BFB0FA80F6A4190B3CB4F1200633
:101690002FBF00FA06F1A140C4F1200620FA06F699
:1016A00038BF3143A0403C1B1AE7AC421ABF05EAE1
:1016B0001357AF4212E050EA41061CBF52EA4306FC
:1016C000BFE750EA4107304661461CBF41EA055179
:1016D000F0BD52EA430C08BFC143F0BD00204FF4F7
:1016E000001616EB410F98BF16EB430F08BF16EB21
:1016F000410F24BFC14305E016EB430F0CBF614609
:101700004CEA0551F0BD0000400D491840EA812027
:101710000CD2490DA1F58061491C40F0004005DB69
:10172000D1F11F0154BFC840C01770470020704757
:10173000014648B1B0FA80F18840C91CC1F5846106
:10174000090501EBD02140057047000070B44FF04F
:10175000004591EA030F40F16F806B40841A71EBF2
:10176000030603D2001BB141121973414FF4001C50
:101770001CEB410F34BF7CEB430442E00C0DA4EBA7
:101780001356352E4FDC45EAC323DB0A45EAC12157
:10179000C912B6F120050DDD63FA05F6EB4086EAC5
:1017A0000305124218BF45F00105C01851F10001B0
:1017B0000CD213E062FA06F5F2405540F3415A406C
:1017C000B340F3405A408018594107D349085FEAB3
:1017D00030005FEA350528BF45F0010501F58011AD
:1017E000420875F1004250F1000041EB04514E00F7
:1017F00016F5001F70BC38BF70470020090D0905A1
:1018000070471CEB410F10D252EA43060BD0BCEBE1
:10181000410F05D80C0DAB43661E342EB6DD02E039
:10182000AB438018594170BC704770BC70470120B1
:1018300000F0B8B870470000841A71EB030604D2B8
:101840006E40001BB141121973414FF4001C1CEB98
:10185000410F34BF7CEB430683E00C0DA4EB135621
:10186000362E00F37C80012E45EAC32341DC43EA97
:10187000525312BFD20292025B08240545EAC121ED
:1018800041EA5051D2EBC020994125D407D1B0FA9A
:1018900080F610FA06F162D00020203608E0B1FA96
:1018A00081F6B140C6F1200220FA02F21143B040A5
:1018B0004FEAF474B4EB465434F001064FEA740472
:1018C0000AD8D6F50016760D04F00044F04061FA0F
:1018D00006F25040F1404840C00A40EA415021F031
:1018E000004128BF5FEA500550F1000044EBD121D0
:1018F00035E0DB0A45EAC121C90AB6F120050EDD53
:1019000042EA0242120CC5F1200603FA06F6EB4049
:1019100042EA06056D42984161F100010DE062FA6C
:1019200006F5F240554063FA06FC82EA0C02F340E9
:101930005A406D42904161EB030111F4801F05D1C3
:10194000641E620502D06D004041494121F48011BE
:10195000430875F1004350F1000041EB045170BCA5
:1019600070471CEB410F15D223F0004352EA4306A7
:101970000BD04FEA4C0CBCEB410F04D80C0D661E8B
:10198000342EB7DDEBE7801A994150EA410608BFD3
:101990000021E4E708BF1CEB430F28BF6FF00001F4
:1019A000DDE7000080B5AFF30080024A1100182087
:1019B000ABBEFBE7260002002DE9F44F82B08A4659
:1019C000816800914568C6680468DFF8600440EAF1
:1019D0000A00002C0FFA80F804FB04F748D0002F0F
:1019E00046D017F003012A4605D013885344491EF8
:1019F00022F8023BF9D1B8080FD011885144118068
:101A0000401E53889188534453805144D388918019
:101A10005344D38002F10802EFD14FB317F0030112
:101A20002B46B44600F0088033F902EB1EFB0AFE99
:101A3000491E4CF804EBF7D1B80819D033F9021B52
:101A400011FB0AF14CF8041B401E33F902EB1EFB9C
:101A50000AFE4CF804EB33F9021B11FB0AF94CF8AF
:101A6000049B33F9021B11FB0AFB4CF804BBE5D1C4
:101A7000002000210022002C18BF002F4ED017F0AC
:101A8000030EB44600F01280DCF8003018448045A4
:101A900002DA0A32002003E09942B8BF521C00BFAC
:101AA000BEF1010E19460CF1040CEDD1BB0835D086
:101AB00086461846DCF800309E44F04503DA0A32C8
:101AC0004FF0000E02E09942B8BF521CDCF804103F
:101AD0008E44F04503DA0A324FF0000E02E08B42EA
:101AE000B8BF521CDCF808309E44F04503DA0A32D5
:101AF0004FF0000E02E09942B8BF521CDCF80C1007
:101B00008E44F04503DA0A324FF0000E02E08B42B9
:101B1000B8BF521C401E0CF1100CCBD1002110B2EA
:101B200000F09AFD002CADF804003DD000213246B3
:101B30004FEA04004FF0000E009BF4460CEB010945
:101B400035F9199033F91CB00CF1010CA44519FBBF
:101B50000BEE23D20CEB010935F9199033F91CB0C7
:101B60000CF1010CA44519FB0BEE17D20CEB01098B
:101B700035F9199033F91CB00CF1010CA44519FB8F
:101B80000BEE0BD20CEB010935F9199033F91CB0AF
:101B90000CF1010CA44519FB0BEECFD36118009397
:101BA000401E42F804EBC5D1002000210022002C89
:101BB00018BF002F4ED017F0030EB44600F012806D
:101BC000DCF800301844804502DA0A32002003E0D5
:101BD0009942B8BF521C00BFBEF1010E19460CF16C
:101BE000040CEDD1BB0835D086461846DCF8003031
:101BF0009E44F04503DA0A324FF0000E02E09942AB
:101C0000B8BF521CDCF804108E44F04503DA0A32E7
:101C10004FF0000E02E08B42B8BF521CDCF80830D7
:101C20009E44F04503DA0A324FF0000E02E099427A
:101C3000B8BF521CDCF80C108E44F04503DA0A32AF
:101C40004FF0000E02E08B42B8BF521C401E0CF158
:101C5000100CCBD1BDF8041010B200F0FDFC814691
:101C6000009B2A463146204600F084F900200021DE
:101C70000022002C18BF002F4ED017F0030EB446E0
:101C800000F01280DCF800301844804502DA0A3295
:101C9000002003E09942B8BF521C00BFBEF1010E04
:101CA00019460CF1040CEDD1BB0835D08646184618
:101CB000DCF800309E44F04503DA0A324FF0000EA3
:101CC00002E09942B8BF521CDCF804108E44F04583
:101CD00003DA0A324FF0000E02E08B42B8BF521C0A
:101CE000DCF808309E44F04503DA0A324FF0000E6B
:101CF00002E09942B8BF521CDCF80C108E44F0454B
:101D000003DA0A324FF0000E02E08B42B8BF521CD9
:101D1000401E0CF1100CCBD1494610B200F09CFCD7
:101D20008146009B2A463146204600F0F5F9002006
:101D300000210022002C18BF002F48D017F0030C00
:101D400011D033681844804502DA0A32002003E0DB
:101D50009942B8BF521C00BFACF1010C361DBCF15A
:101D6000000F1946EDD1BB0831D0844618463368C0
:101D70009C44E04503DA0A324FF0000C02E099423D
:101D8000B8BF521C71688C44E04503DA0A324FF048
:101D9000000C02E08B42B8BF521CB3689C44E04583
:101DA00003DA0A324FF0000C02E09942B8BF521C2D
:101DB000F1688C44E04503DA0A324FF0000C02E08F
:101DC0008B42B8BF521C401E06F11006CFD14946C7
:101DD00010B200F041FC002C18BF002F0246CAF1DF
:101DE000000A1AD017F0030105D02B885344491E6E
:101DF00025F8023BF9D1B8080FD029885144298031
:101E0000401E6B8853446B80A9885144A980EB889D
:101E10005344EB8005F10805EFD1BDF8081003B07D
:101E2000BDE8F04F10B200F017BC000000F0FFFF5B
:101E30002DE9F04704469A460120002302B9012209
:101E4000BCB15B1C03FB03F5ED00A5423FBF5B1C6F
:101E500003FB03F7FF00A7420BD25B1C03FB03F558
:101E6000ED00A5423FBF5B1C03FB03F7FF00A74249
:101E7000E7D3491E89085B1E89000F1D002B03FB59
:101E800003FC18BFBCF1000F07EB4C0E60D01CF038
:101E900003057146B84612D04243D41302EB1446F0
:101EA0003614A2EB064284180C8031F8024B041958
:101EB000401C04F0FF046D1E28F8024BECD15FEAD1
:101EC0009C0945D04243D51302EB15442414A2EBE0
:101ED0000442851821F8025B451905F0FF0528F832
:101EE000025B401C4243D51302EB15442414A2EBC1
:101EF000044286180E8031F8025B451905F0FF0593
:101F0000401C28F8025B4243D41302EB14452D1405
:101F1000A2EB054286180E8031F8024B041904F03A
:101F2000FF04401C28F8024B4243D51302EB154432
:101F30002414A2EB044286180E8031F8025B451986
:101F4000401C05F0FF05B9F1010928F8025BB9D181
:101F50000EEB4C00401E80088000001DCAF8047083
:101F6000CAF808E0CAF80C00CAF800301846BDE804
:101F7000F0870000002800D170472DE9F04F85B0B0
:101F80004FF0000803920491029301910090DDF854
:101F90000CC002284FF0000E60D30199029F6546E5
:101FA00000268C460021002210F003043B46AE467A
:101FB00000F00E803EF9029BB3F900A0B3F902B025
:101FC00019FB0A11641E19FB0B2203EB4003F1D12C
:101FD000840836D0F14686464FEA040039F902BB40
:101FE000B3F900401BFB0411B3F9024003EB4E03AD
:101FF0001BFB042239F902BBB3F900401BFB04119F
:10200000B3F9024003EB4E031BFB042239F902BB78
:10201000B3F900401BFB0411B3F9024003EB4E037C
:102020001BFB042239F902BBB3F900401BFB04116E
:10203000B3F90240401E1BFB042203EB4E03CDD13B
:102040007046B61CCCF800103F1D711CCCF8042063
:1020500081420CF1080CA5D3AC46B64686454CD25D
:10206000049C039D029E47460021002210F00303BA
:1020700006EB4E08E1460AD039F902ABB8F900B0D8
:10208000521C5B1E1AFB0B1108EB4008F4D18308AD
:1020900027D0D21905EB42090246184639F902BB8E
:1020A000B8F900301BFB031108EB420339F9028B2E
:1020B000B3F900A039F902BB03EB420318FB0A1184
:1020C000B3F9008039F902AB03EB42031BFB0811A3
:1020D000B3F900801AFB0811401E03EB4208DDD162
:1020E00010460EEB07020EF1010E44F82210864551
:1020F000BAD3049403950296B846019A02EB800382
:1021000001930CEB400C009B5B1E804400937FF41A
:1021100040AF05B0BDE8F08F002800D170472DE931
:10212000F04F85B04FF000080392049102930191A3
:102130000090DDF80CC002284FF0000EC0F09F8028
:102140000199029F654600268C460021002210F06E
:1021500003043B46AE4619D03EF902ABB3F90090FA
:10216000B3F902B01AFB09F91AFB0BFAC9F3830B96
:10217000C9F3461919FB0B11CAF38309CAF3461AAE
:10218000641E1AFB092203EB4003E5D1840868D0E2
:10219000F14686464FEA040039F902BBB3F9004024
:1021A0001BFB04FAB3F902401BFB04F4CAF3830BD4
:1021B000CAF3461A1AFB0B11C4F3830AC4F346147C
:1021C00014FB0A2203EB4E0439F902BBB4F90030C8
:1021D0001BFB03FAB4F902301BFB03F3CAF3830BB6
:1021E000CAF3461A1AFB0B11C3F3830AC3F346134F
:1021F00013FB0A2204EB4E04134639F902BBB4F96F
:102200000020B4F902A01BFB02F21BFB0AFAC2F386
:10221000830BC2F3461212FB0B110A46CAF3830169
:10222000CAF3461A04EB4E041AFB013339F902AB28
:10223000B4F900101AFB01FBB4F902101AFB01FA01
:10224000CBF38301CBF3461B1BFB0121CAF38302B3
:10225000CAF3461A1AFB0232401E04EB4E039BD10E
:102260007046B61CCCF800103F1D711CCCF8042041
:1022700081420CF1080CFFF468AFAC46B6468645C7
:102280006CD2049C039D029E47460021002210F060
:10229000030306EB4E08E14600F0118039F902AB6A
:1022A000B8F900B01AFB0BFBCBF3830A521CCBF33B
:1022B000461B5B1E1BFB0A1108EB4008EED183088E
:1022C00040D0D21905EB42090246184639F902BB43
:1022D000B8F900301BFB03F3C3F3830AC3F34613BF
:1022E00013FB0A110B4608EB420139F9028BB1F9D5
:1022F00000A039F902BB18FB0AF8C8F3830AC8F337
:10230000461801EB420118FB0A33B1F900801BFBB0
:1023100008F8C8F3830AC8F3461818FB0A3301EB20
:10232000420839F9021BB8F900A011FB0AFACAF3F6
:102330008301CAF3461A401E1AFB013108EB42081A
:10234000C4D110460EEB07020EF1010E44F8221024
:1023500086459AD3049403950296B846019A02EBF7
:10236000800301930CEB400C009B5B1E80440093A8
:102370007FF4E1AE05B0BDE8F08F0000401E0428F8
:1023800013D8DFE800F00306090C0F0008480068C6
:102390007047084908687047074800687047074950
:1023A00008687047064800687047002070470000C2
:1023B000880900208C090020F4070020F80700207D
:1023C0009009002081EA000C030649084AF2010244
:1023D0005FEACC7C48BF514081EA536C49085FEA10
:1023E000CC7C48BF514081EA936C49085FEACC7CC1
:1023F00048BF514081EAD36C49085FEACC7C48BFB2
:10240000514081EA137C49085FEACC7C48BF5140C7
:1024100081EA537C49085FEACC7C48BF514081EA9D
:10242000937C49085FEACC7C48BF51404FEA510C8D
:1024300081EAD371C90748BF82EA0C0C8CEA1021EB
:102440004FEA5C0CC90748BF82EA0C0C8CEA5021A9
:102450004FEA5C0CC90748BF82EA0C0C8CEA902159
:102460004FEA5C0CC90748BF82EA0C0C8CEAD02109
:102470004FEA5C0CC90748BF82EA0C0C8CEA1031A9
:102480004FEA5C0CC90748BF82EA0C0C8CEA503159
:102490004FEA5C0CC90748BF82EA0C0C8CEA903109
:1024A0004FEA5C0CC90748BF82EA0C0C4FEA5C019A
:1024B0008CEAD03C5FEACC704CBF4A400A461046DA
:1024C000704730B481EA0005040649084AF2010267
:1024D000ED0748BF514081EA54654908ED0748BF00
:1024E000514081EA94654908ED0748BF514081EAAF
:1024F000D4654908ED0748BF514081EA1475490881
:10250000ED0748BF514081EA54754908ED0748BFBF
:10251000514081EA94754908ED0748BF51404D0884
:1025200081EAD471C90748BF5540030485EA1361A5
:102530006D08C90748BF554085EA53616D08C90752
:1025400048BF554085EA93616D08C90748BF5540AB
:1025500085EAD3616D08C90748BF554085EA137104
:102560006D08C90748BF554085EA53716D08C90712
:1025700048BF554085EA93716D08C90748BF55406B
:10258000690885EAD373DB0748BF5140000C81EA34
:10259000000403064908E40748BF514081EA536438
:1025A0004908E40748BF514081EA93644908E407B9
:1025B00048BF514081EAD3644908E40748BF51400D
:1025C00081EA13744908E40748BF514081EA537413
:1025D0004908E40748BF514081EA93744908E40779
:1025E00048BF51404C0881EAD371C90748BF5440E5
:1025F00084EA10216408C90748BF544084EA502186
:102600006408C90748BF544084EA90216408C90798
:1026100048BF544084EAD0216408C90748BF5440E9
:1026200084EA10316408C90748BF544084EA503135
:102630006408C90748BF544084EA90316408C90758
:1026400048BF544084EAD030C0074CBF82EA5402ED
:10265000620830BC1046704780B281EA000C030665
:1026600049084AF201025FEACC7C48BF514081EA46
:10267000536C49085FEACC7C48BF514081EA936CB7
:1026800049085FEACC7C48BF514081EAD36C4908D5
:102690005FEACC7C48BF514081EA137C49085FEA7D
:1026A000CC7C48BF514081EA537C49085FEACC7C2E
:1026B00048BF514081EA937C49085FEACC7C48BF1F
:1026C00051404FEA510C81EAD371C90748BF82EAF1
:1026D0000C0C8CEA10214FEA5C0CC90748BF82EA57
:1026E0000C0C8CEA50214FEA5C0CC90748BF82EA07
:1026F0000C0C8CEA90214FEA5C0CC90748BF82EAB7
:102700000C0C8CEAD0214FEA5C0CC90748BF82EA66
:102710000C0C8CEA10314FEA5C0CC90748BF82EA06
:102720000C0C8CEA50314FEA5C0CC90748BF82EAB6
:102730000C0C8CEA90314FEA5C0CC90748BF82EA66
:102740000C0C8CEAD030C0074CBF82EA5C024FEA26
:102750005C02104670470020704700002DE9F04FE2
:1027600081B000202DED028B96B002AA039003A940
:102770000DF1520000F0B0FB0120FFF7FFFDADF8B6
:10278000100004AE0220FFF7F9FD70804FF0FF3912
:102790000320FFF7F3FDB08000270420FFF7EEFDD4
:1027A000F06100240520FFF7E9FDCA4600253062EC
:1027B00008B907213162BDF9100050B9B6F902001D
:1027C000002804BFB6F90400002812D16621B180A8
:1027D0000FE0012804BFB6F90200002809D1B6F9BC
:1027E000040030B943F21540ADF810007080662047
:1027F000B0804FF4FA61DFF88C84B16108F12400F5
:10280000B060A6F84050316AC80748BF0124C1F340
:10281000400000B1641CC1F3800000B1641C4FF49F
:10282000FA60A4B2B0FBF4F0B06107A90020326AEC
:10283000C240D30706D5B369B2687B4313447F1CFB
:102840000B60BFB2401C091D0228F0DD96F8200085
:10285000C10706D5BDF91020F168B06900F0C6FDCA
:10286000706296F8200081070AD5BDF91020B6F9EC
:102870000200316942EA0042B0690EABFFF7D8FAB4
:1028800096F82000410705D57269BDF91010B069AE
:1028900001F0F6F8F06900283FD10121F161F069FB
:1028A00000EB80014900F161002700F0E5FAF469CE
:1028B000B563F563A4B1012104A800F067FC318F72
:1028C000FFF780FD3087514604A800F05FFC318F90
:1028D000FFF778FD308707B970877F1CA742EAD3DE
:1028E00000F0E2FA00F0E8FA00F0E9FAB0EE408A0F
:1028F000F0EE608A51EC180B0022DFF88C3301F007
:102900003BF9CCD3FEF700FF00B901200A22F169A0
:10291000B2FBF0F0401C4143F16100F0ADFAF46904
:10292000B563F5630027A4B1012104A800F02EFCD3
:10293000318FFFF747FD3087514604A800F026FC91
:10294000318FFFF73FFD308707B970877F1CA742A3
:10295000EAD300F0A9FA00F0AFFA00900021BDF927
:102960001000DFF82873FFF777FE0146B6F9020082
:10297000FFF772FE0146B6F90400FFF76DFE01464F
:10298000B06900B2FFF768FE41F6F2018842ADF887
:10299000040000F05E8144F6AF61884200F051818E
:1029A00047F60531884200F0488148F60221884206
:1029B00006D04EF6F511884200F047814D4657E0AB
:1029C000AA46B348DFF8C89201F0EEF83868002450
:1029D000002808EB4A084BD004A904EB041001EBD3
:1029E000800B00229BF82000ABF84020C1070FD5D8
:1029F000BBF83A20B8F800309A4209D02146A548E1
:102A000001F0D2F8BBF8400010F10100ABF8400033
:102A10009BF8200081070FD5BBF83C20B8F80C309C
:102A20009A4209D021469C4801F0BEF8BBF840000C
:102A300010F10100ABF840009BF8200041070FD5D2
:102A4000BBF83E20B8F818309A4209D0214609F563
:102A5000A87001F0A9F8BBF84000401CABF840009A
:102A6000641CBBF9400039682D18A4B28C42B3D362
:102A7000FFF771FEB1692D1890A001F095F800994B
:102A800094A001F091F8009800F019FA53EC102B83
:102A900096A001F089F8009800F011FA51EC100BA3
:102AA0000022002301F094F82DB214D2009800F017
:102AB00006FA3868F169B0EE408AF0EE608A484361
:102AC000FEF736FE53EC182BFEF7FAFC02460B46D7
:102AD0008CA001F069F8009800F0F1F951EC100BAE
:102AE00000226E4B01F048F804D26D4801F05CF80A
:102AF0006D1C2DB23968D6F81C000FF250280FF269
:102B00007829414385A001F04FF8414689A001F0A2
:102B10004BF8494692A001F047F800BF0FF28C2114
:102B20000FF2702001F040F8BDF80410A1A001F0F0
:102B30003BF896F82000C10713D538680FF2902BA8
:102B4000002470B104EB04110DF14A008900425ACF
:102B50002146584601F028F8641C3868A4B2844223
:102B6000F0D396F82010880712D538680FF27C2B26
:102B7000002468B104EB041113A88900425A2146CD
:102B8000584601F011F8641C3868A4B28442F1D3AD
:102B900096F82010480714D538680FF26C2B5FF0B8
:102BA000000470B104EB04110DF14E008900425A8B
:102BB0002146584600F0F8FF641C3868A4B28442ED
:102BC000F0D338680FF25C2B002468B104EB0411D9
:102BD00012A88900425A2146584600F0E5FF641CBD
:102BE0003868A4B28442F1D3002D36D12D4800F0CC
:102BF000DBFFBAF1030F38D1009800F060F93868B4
:102C0000F169CDF80490B0EE408AF0EE608ACDF81C
:102C100000804843FEF78CFD53EC182BFEF750FC68
:102C200002460B4686A000F0BFFF00BF0FF27C11EA
:102C30008AA000F0B9FF12A015E04FF0010A1A486F
:102C4000C0E64FF0020A1948BCE64FF0030A1848E4
:102C5000B8E64FF0040A1748B4E6C8BF0FF20420E4
:102C600001DC02D5144800F09FFF0DF1520000F086
:102C700091F916B00020BDEC028B01B0BDE8F08FD9
:102C80000A000000000000200000F03FFC070020C8
:102C9000CC420000B8430000E8430000000024409C
:102CA0004C4400008C440000FC420000284300001B
:102CB0005C4300008C430000D8440000436F726501
:102CC0004D61726B2053697A65202020203A2025BF
:102CD0006C750A00546F74616C207469636B7320A7
:102CE00020202020203A20256C750A00546F746142
:102CF0006C2074696D65202873656373293A2025FB
:102D0000660A0000497465726174696F6E732F53AF
:102D100065632020203A2025660A00004974657208
:102D20006174696F6E73202020202020203A2025B6
:102D30006C750A00436F6D70696C65722076657200
:102D400073696F6E203A2025730A000049415220B2
:102D5000382E33322E312E31383633310000000018
:102D6000436F6D70696C657220666C6167732020BB
:102D7000203A2025730A00002D4F6873202D6E6FB6
:102D80005F73697A655F636F6E73747261696E7485
:102D9000730000004D656D6F7279206C6F63617414
:102DA000696F6E20203A2025730A0000464C41537B
:102DB0004800000073656564637263202020202052
:102DC00020202020203A203078253034780A000056
:102DD0005B25645D6372636C69737420202020201E
:102DE00020203A203078253034780A005B25645D55
:102DF0006372636D617472697820202020203A200C
:102E00003078253034780A005B25645D6372637323
:102E1000746174652020202020203A2030782530ED
:102E200034780A005B25645D63726366696E616C69
:102E30002020202020203A203078253034780A00C5
:102E4000436F72654D61726B20312E30203A202520
:102E500066202F202573202573000000202F2025B9
:102E6000730000004572726F72732064657465634D
:102E70007465640A000000004B494C4ADFF830C119
:102E8000002008601368A3FB0CC0400A401EB0F18C
:102E9000807F08D247494860F02081F8130D002256
:102EA0008A60072008607047424801684908490065
:102EB00001600022826070473B480068704700B59F
:102EC00081B0FEF735FC00223B4BFEF7F9FA41ECEE
:102ED000100B01B000BD000070B504461621882219
:102EE000364D5920C5F8C400C5F8C410C5F8C42033
:102EF000D5F8C4000028F4D03148324E016821F0E2
:102F0000F0010160012000F075FF012001F060F880
:102F10002D4800F0DBFE1120C5F8F801304600F026
:102F20006FFF00220021304600F030FF01F0B0F8C2
:102F3000286820F47F0028600020296841F4CC0133
:102F40002960C5F8C4004FF4E131204801F0FAF8D7
:102F500000F0B3FE4FEA00011DA000F025FE00F0D6
:102F6000A3FE014621A000F01FFE00F049FE01462D
:102F700024A000F019FE00F06DFE01460FF2A00043
:102F800000F012FE42F6E0612CA000F00DFE0120E0
:102F9000207070BD00210170704703480168491C12
:102FA00001607047000000008409002040080020F4
:102FB000986E128310E000E000408F403C0000401B
:102FC00040410040103D805700B0710B00000740A9
:102FD0000D0A434C4B5F476574435055467265710B
:102FE000203A202538640D0A00000000434C4B5F56
:102FF00047657448434C4B46726571203A2025382A
:10300000640D0A00434C4B5F47657450434C4B3092
:1030100046726571203A202538640D0A00000000D0
:10302000434C4B5F47657450434C4B31467265715E
:10303000203A202538640D0A00000000436F7265B5
:103040006D61726B20737461727420282564206D29
:10305000732920210A0000002DE9F041064682B0C4
:10306000B6F9007038068846154648BF07F07F0756
:1030700034D4C7F3C30117F0070041EA01110BD0A4
:1030800001281CD12A8F05F12800FEF795FC044683
:10309000A88FA8B9AC8713E02229288F0190B8BF68
:1030A00022210091B5F90230B5F900206969A869BB
:1030B00000F020FB0446E88F10B9EC8700E03C46A6
:1030C000298FA0B2FFF77EF904F07F0427F0FF07F5
:1030D0002743288747F0800737802746B8F9004004
:1030E000200648BF04F07F0435D4C4F3C30114F0B4
:1030F000070041EA01110BD001281CD12A8F05F1EC
:103100002800FEF759FC0646A88FA8B9AE8713E041
:103110002229288F0190B8BF22210091B5F90230F1
:10312000B5F900206969A86900F0E4FA0646E88F5D
:1031300010B9EE8700E02646298FB0B2FFF742F9BA
:1031400006F07F0624F0FF043443288744F080040F
:10315000A8F800403446381B02B0BDE8F08172B9CF
:10316000825EB0F90030121262F307030380B1F9F6
:103170000020B1F90030121262F307030B80B0F99E
:103180000200B1F90210401A704700002DE9F04B1F
:1031900081B0002703B481B0426A0199BDF908905B
:1031A00000920023B1F90460002E9C469E4640F335
:1031B000CA8014460FFA89F8B8F1000F0EF0FF0B21
:1031C000204600F1918000281FBF4168B1F902201C
:1031D0000FFA89F5AA4200F08980006800281EBF16
:1031E0004168B1F90220AA4200F0808000680028FE
:1031F0001EBF4168B1F90220AA4277D000680028BA
:103200001FBF4168B1F90220AA420068DBD16DE01E
:10321000426815785D451CBF006800281EBF4268E3
:1032200015785D4562D0006800281EBF4268157899
:103230005D455BD0006800281FBF426815785D457A
:10324000006851D152E04168B1F900107F1CCA07F3
:1032500044BFC1F34021CB180168002966D00A6839
:10326000026020680860216060E0002F1EBF78685F
:10327000B0F9021091421CBF3F68002F00F085801A
:103280007868B0F9021091421CBF3F68002F7CD0D3
:103290007868B0F9021091421CBF3F68002F1EBF32
:1032A0007868B0F9021091426FD03F68DDE7796825
:1032B0000A780FFA8BF082421CBF3F68002F1EBFB6
:1032C00079680A78824260D03F68002F1EBF796813
:1032D0000A78824259D03F68002F1FBF79680A7868
:1032E00082423F684FD150E0002891D1214600240E
:1032F00091B10A680C600C4672B111681460002923
:1033000014461FBF0A680C600C46002A1FBF1168D4
:10331000146014460029ECD1002894D1206841683B
:103320000A88C2F300200CF1010CC318B8F1000F99
:103330000EF1010E58BF09F101090FFA8EF1B142E9
:10334000FFF638AF0094BDF9080003EB87030028AF
:10335000A3EB0C0505DD019A0098B14900F068F96E
:10336000009000980068016842680E4673684360E8
:1033700072600FFA89F20968016000203060002A4B
:10338000009F7FF572AF002F91D10FB900980768A9
:1033900067B1009C284681B26068B0F90000FFF771
:1033A0005BF93F68002FF6D105460094009800684D
:1033B0007168426872604160002201683160066095
:1033C0000098984900F034F907463E6856B12846FF
:1033D00081B27868B0F90000FFF73EF93668002E38
:1033E000F6D10546A8B204B0BDE8F08B2DE9F04F48
:1033F000884611468C4BA0FB0332120981B0921E05
:10340000002008EBC203C8F80000C8F80430588058
:103410001D1D8648188008F1080000F108079F422A
:103420003EBF2C1D03EB8206B4420ED20024074699
:1034300008303C60C8F800704FF0FF347D602D1DEF
:103440007F683C8047F6FF747C800027002A00F0EC
:10345000C08012F0030403EB820E47F6FF7C25D0F8
:1034600087EA0106F60006F0780907F0070646EA43
:10347000090646EA062900F108069E423EBF2E1DB7
:1034800003EB820B5E450ED2D8F800B0064608303A
:10349000C6F800B0C8F8006075602D1D7668A6F803
:1034A0000090A6F802C07F1C641ED9D1940800F0D9
:1034B000908081464FEA040087EA0104E40004F0AA
:1034C000780407F00706344309F108069E423EBF20
:1034D0002E1D03EB820B5E4544EA04240ED2D8F87D
:1034E00000B04E4609F10809C6F800B0C8F80060FF
:1034F00075602D1D76683480A6F802C07F1C87EAAF
:103500000104E40004F0780407F00706344309F1ED
:1035100008069E423EBF2E1D03EB820B5E4544EA29
:1035200004240ED2D8F800B04E4609F10809C6F8B6
:1035300000B0C8F8006075602D1D76683480A6F86C
:1035400002C07F1C87EA0104E40004F0780407F05D
:103550000706344309F108069E423EBF2E1D03EBC9
:10356000820B5E4544EA04240ED2D8F800B04E46E1
:1035700009F10809C6F800B0C8F8006075602D1D93
:1035800076683480A6F802C07F1C87EA0104E40054
:1035900004F0780407F00706344309F108069E4258
:1035A0003CBF2E1D764544EA04240ED2D8F800B064
:1035B0004E4609F10809C6F800B0C8F80060756009
:1035C0002D1D76683480A6F802C07F1C401E7FF453
:1035D00073AFDFF854A0D8F80050A2FB0AA0012373
:1035E00082082868A0B15C1C93420CD381EA0307CF
:1035F00023461C0204F4E0646D682743C7F30D07FB
:103600006F800546EDE76D686B8023460546E8E769
:10361000404601B0BDE8F04F0022024908E000003A
:10362000593000005F310000CDCCCCCC8080FFFF52
:103630002DE9F04F884683B083469146012100E092
:1036400049005FEA0B024FF0000B5D462B4648D065
:10365000009101930198401C0190002600980028D9
:10366000144618DD009911F0030004D02468761C7C
:103670008CB1401EFAD189080DD02468761C54B153
:103680002468761C3CB12468761C24B12468761C1E
:103690000CB1491EF1D1009F924607E020462468F4
:1036A0007F1E002D0CBF834628600546002E02DCDD
:1036B000002F12DD8CB1002EF0D0002F18BF002C8F
:1036C00006D06168DAF804004A46C0470028E5DC05
:1036D0005046DAF800A0761EE3E72200BAD100993E
:1036E000019B0020012B2860AADC584603B0BDE8EE
:1036F000F08F00002DE9FF4F8DB00B460021002216
:103700000391049200910592069107910891099105
:103710000A910B920025187800288A468B46884625
:10372000894600F0A2800399CDF808A0CDF804B036
:10373000002418780027002800F086802C2800F04C
:103740008280A0F130050A2D6ED32B2818BF2D28BA
:1037500072D0491C2E286AD105271BE0521CA0F10B
:1037600030050A2D5CD32E285CD1052712E03038B5
:103770000A2850D213F8010F002865D02C2862D0F7
:103780002E28F4D10198401C0527019002E0303822
:103790000A283CD213F8010F002855D02C2852D00B
:1037A000452818BF6528F2D113F8010F0327002818
:1037B00008F1010848D02C2845D02B2820D10298A8
:1037C000401C0290062713F8010F00283CD02C283B
:1037D00039D0641C30380A2810D3012733E000BFE9
:1037E00013F8010F00282FD02C282CD030380A28AD
:1037F000F6D30098401C0127009024E00727EFE74C
:103800002D28DCD00298401C012702901BE00127E4
:1038100008F1010817E00198401C0127019012E00F
:103820000427A7E701270EE00427491CA2E7009818
:10383000401C0127009006E013F8010F0227491CE5
:1038400010B12C288AD15B1C04A850F827506D1C9D
:1038500040F82750187800287FF46BAFDDF808A0F7
:10386000DDF804B003911546A1460E980D9ABDF9F6
:103870003C1002440192019BBDF96820984208D295
:1038800003782C2B1CBF4B400370019B10449842C3
:10389000F6D30E9E3078002800F09D80DDF80CE015
:1038A000DDF800C02B46404604AC317800250029E5
:1038B00000F081802C2900F07D80A1F130020A2ADD
:1038C00068D32B2918BF2D296CD02E290EF1010E9B
:1038D00064D105251AE05B1CA1F130020A2A55D3F8
:1038E0002E2955D1052511E030390A294AD216F87A
:1038F000011F00295FD02C295CD02E29F4D1052589
:103900000BF1010B02E030390A2938D216F8011FF9
:10391000002950D02C294DD0452918BF6529F2D156
:1039200016F8011F0325401C002944D02C2941D042
:103930002B291ED116F8011F062500290AF1010ABC
:1039400039D02C2936D030390A2909F101090ED392
:1039500001252FE016F8011F00292CD02C2929D091
:1039600030390A29F6D301250CF1010C22E0072594
:10397000F0E72D29DED001250AF1010A1AE0012520
:10398000401C17E001250BF1010B13E00425AEE705
:1039900001250FE004250EF1010EA8E701250CF129
:1039A000010C07E016F8011F02250EF1010E11B1FE
:1039B0002C2990D1761C04A951F82520521C44F8DA
:1039C0002520317800297FF470AFCDF80CE0CDF8D8
:1039D00000C01D4680460E990D9ABDF96840BDF99C
:1039E00040008B18994207D20A782C2A1CBF42400B
:1039F0000A7021449942F7D31B990498FEF761FDA0
:103A000001460398FEF75DFD04AC01466068FEF7D1
:103A100058FD01460098FEF754FD0146A068FEF7E8
:103A200050FD01462846FEF74CFD0146E068FEF7D2
:103A300048FD01465046FEF744FD01462069FEF769
:103A400040FD01465846FEF73CFD01466069FEF721
:103A500038FD01464046FEF734FD0146A069FEF7F9
:103A600030FD01464846FEF72CFD0146E069FEF7B1
:103A700028FD01460020FEF724FD11B0BDE8F08FBF
:103A80002DE9F04F002381B04FF0000C9E46451EFB
:103A9000364C0E46904605E031B2C1F3C10154F8F0
:103AA00021E0042303EB0C00401CA8424FD243B397
:103AB000002208EB0C0713F00300B946714606D04C
:103AC00011F801AB09F801AB521C401EF8D198085F
:103AD00000F0138011F801AB09F801AB121D11F8C9
:103AE00001BB09F801BB401E11F801AB09F801AB9D
:103AF00011F801BB09F801BBECD12C20B854591CBA
:103B00008C44761C06F00702072ACBD8DFE802F0C7
:103B100005050506060E0E16C4E7BDE7144930B2CA
:103B2000C0F3C10051F820E00823BBE7114831B2CF
:103B3000C1F3C10150F821E00823B3E704F13000DC
:103B400031B2C1F3C10150F821E00823AAE7691C92
:103B50008C4508D208EB0C0001B0BDE8F04FA1EB9A
:103B60000C0100F07FBB01B0BDE8F08F0008002021
:103B700010080020200800204FF4001C1CEB410F0F
:103B800094BF1CEB430F09E041EA030C50EA4C0CD4
:103B900052EA0C0C03D2994208BF9042704714BFFE
:103BA0008B428242704700000EB4C0B5024603A8A3
:103BB00000210190009101AB0121044878440C30B0
:103BC000FCF7FAFA06BC5DF810FB00BF0F0C000012
:103BD0004FF4001C1CEB410F94BF1CEB430F09E09A
:103BE00041EA030C50EA4C0C52EA0C0C03D28B4213
:103BF00008BF8242704714BF99429042704700004C
:103C000000B581B000F044FADFF83404DFF8341472
:103C100000680A6812F0070F1AD00A6802F007025B
:103C2000012A08BF400813D00A6802F00702022ADE
:103C300008BF80080CD00A6802F00702032A08BFF8
:103C4000C00805D0096801F00701042908BF000970
:103C500001B000BD00B581B000F01AFADFF8E00352
:103C6000DFF8E01300680A6812F0700F1AD00A68D3
:103C700002F07002102A08BF400813D00A6802F050
:103C80007002202A08BF80080CD00A6802F0700277
:103C9000302A08BFC00805D0096801F0700140292A
:103CA00008BF000901B000BD00B581B000F0F0F917
:103CB000DFF88C03006801B000BD00B581B000F0F2
:103CC000E7F9DFF87C03006801B000BD2DE9F041A1
:103CD000DFF86463DFF87043356D0146DFF86C038D
:103CE0008142306840F00400306005F0100528BFC4
:103CF000DFF85C132046326DD30619D4002818BFB4
:103D0000401EF8D114E04FF4002000F087F8356D24
:103D1000804605F01005376D306840F004003060D3
:103D2000306DC10614D4002C18BF641EF8D10FE00A
:103D3000306940F007003061306A000900013062EC
:103D40003268D007DFD5002000F068F88046E2E74F
:103D5000306940F007003061306A000900013062CC
:103D60003069C008C00040F00200306100F090F9F6
:103D7000F80603D4316821F0040131601DB93068C0
:103D800020F0040030604046BDE8F081F0B4C0F39C
:103D90008723D3B1C0F38144022C08BFDFF8B452AB
:103DA0000AD0032C08BFDFF8B05205D0050C05F08F
:103DB0000C05DFF8A842651947092E6807F01F07B0
:103DC000BB4026EA03031A432A60C0F342627AB179
:103DD000840E04F00C04DFF888321C19000D2568ED
:103DE00000F01F0002FA00F025EA000008432060FE
:103DF000F0BC7047DFF840120A6810430860704753
:103E0000820FDFF8601201EB820101220B6800F0E3
:103E10001F0002FA00F01843086070472DE9F04FC8
:103E20000600DFF8140284B00F46016C41F48031C3
:103E30000164014608680FD140F001000860DFF816
:103E400008020A6DD30700F18E80002818BF401EBB
:103E5000F7D1002201928CE040F004000860DFF806
:103E6000E8010A6DD30600F18180002818BF401ECA
:103E7000F7D17BE0022C01D1039E0096009E022721
:103E80005FEA9606DFF8B451DFF8DCB1B5FBF7F86E
:103E9000DFF8D85145445D4580F01C804FEA480565
:103EA0004FF0020C4FEA95080CFB08F503EB050BED
:103EB000D3450BD2AE4234BFAD1B751B854205D234
:103EC0002800BE466146224600F009800CF1010C34
:103ED000CC45E9D37F1C212F16D20028D2D1019FD7
:103EE000554E501E47EA8037AEF1010047EA4027A1
:103EF000881E074337645448376D7B074FD400282A
:103F000018BF401EF8D14AE0641C042CE7D80028F2
:103F1000E5D0032CF8D0042CACD1029EADE7002EE6
:103F200007BF44F21E200864514A0A6446480A6DDD
:103F300056073ED4002818BF401EF8D139E04D483E
:103F4000C1F30802921C4243C1F34426C1F38131FC
:103F5000761C1DF8010010FB06F6B2FBF6F0C0005F
:103F600004B0BDE8F08F0022019202E04FF400207F
:103F70000190414B414AD8199042D0D27D0003951F
:103F80004FF0FF30BD0002954FF0000E00210022DF
:103F9000012440F20229DFF8E8A000976EE72748E5
:103FA0000EFB02F2B0FBF2F04143480004B0BDE862
:103FB000F08F00BF35A73A6800920020096C11F419
:103FC000A02FCDD18803BAD51C4804B0BDE8F08F2E
:103FD000024601201C492C4B00E0491ED3F800C0CA
:103FE00002EA0C0C944502D00029F6D1002070475B
:103FF00026A2DFF890C0136881B000200093DCF89F
:10400000001011F4A02F14D1880348BF0B4810D41E
:10401000C1F30802921C17484243C1F34423C1F381
:1040200081315B1C1DF8010010FB03F3B2FBF3F0C0
:10403000C00001B07047000000020040001BB70044
:10404000400800203402004080F5200001B0710BD0
:1040500000B0710B2C0200403002004020020040F2
:10406000100200400402004001093D0000F7C2FFB9
:104070001E420800C0C62D00800F05FD8174D21AB3
:10408000C16878044002004050020040010202046E
:1040900010B5FFF7ADFF2249224A234C8860136810
:1040A00003F00703022B1CBF01EB8300C0681269F9
:1040B00002F00F02521CB0FBF2F20A601B48821899
:1040C000A2FB0443DA0C4A6010BD1948016841F4B0
:1040D00070010160174802681209120142F00802DB
:1040E00002601548D0F8901041F48021C0F890107B
:1040F0000268124942F0020202600B6823F00833A2
:104100000B604A6822F008324A60016821F002011F
:1041100001600B48026822F0F00202607047000064
:10412000400800201002004006BD378620A107008D
:1041300088ED00E04CC0004008020040041104403B
:1041400040410040F0B50C460FF2081191E80C50C8
:1041500085B005466846002680E80C500127DFF848
:10416000D400854208D1DFF8D0000168C068C1F3EF
:104170000166C0F3032733E0DFF8C0108D4205D19C
:104180002D480168C068C1F3816627E02C498D4243
:1041900007D129488168C769C1F3016607F00F0795
:1041A0001EE02848854207D123488168C069C1F3D1
:1041B0008166C0F3031713E023498D4207D11E48DF
:1041C0008168C069C1F30176C0F3032708E01F4985
:1041D0008D4206D118488668C069B60FC0F3033710
:1041E0007F1C002028630321E960AA681848024068
:1041F000012EAA6002D1FFF7FBFE0190BCB15DF871
:104200002610B1FBF7F000EB5402B2FBF4F1891E6B
:10421000B1F5803F08D300EBC400B0FBF4F0000917
:10422000801E686205B0F0BD41F04051696205B082
:10423000F0BD0000000007401402004000100740DD
:104240000020074000300740004007400050074072
:104250000FFFF0FF001BB70000000000008000000F
:10426000001BB700002200F001B80000401810F059
:10427000030308D0C91A1FD3DB0748BF00F8012D7C
:1042800028BF20F8022D130030B41446154610390B
:1042900028BF20E93C00FAD8490728BF20E90C00D4
:1042A00048BF40F8042D890028BF20F8022D48BFE0
:1042B00000F8012D30BC7047C91818BF00F8012D57
:1042C000CB0728BF00F8012D70470000366B207027
:1042D0006572666F726D616E63652072756E2070B7
:1042E0006172616D657465727320666F7220636FB1
:1042F00072656D61726B2E0A00000000366B2076CD
:10430000616C69646174696F6E2072756E20706192
:1043100072616D657465727320666F7220636F726F
:10432000656D61726B2E0A0050726F66696C652054
:1043300067656E65726174696F6E2072756E20704C
:104340006172616D657465727320666F7220636F50
:1043500072656D61726B2E0A00000000324B207096
:104360006572666F726D616E63652072756E207026
:104370006172616D657465727320666F7220636F20
:1043800072656D61726B2E0A00000000324B207660
:10439000616C69646174696F6E2072756E20706102
:1043A00072616D657465727320666F7220636F72DF
:1043B000656D61726B2E0A005B25755D4552524F2B
:1043C0005221206C69737420637263203078253029
:1043D0003478202D2073686F756C642062652030FE
:1043E00078253034780A00005B25755D4552524FC0
:1043F0005221206D61747269782063726320307875
:1044000025303478202D2073686F756C64206265C8
:10441000203078253034780A000000005B25755D77
:104420004552524F52212073746174652063726348
:1044300020307825303478202D2073686F756C64B7
:10444000206265203078253034780A004552524F7A
:104450005221204D757374206578656375746520ED
:10446000666F72206174206C656173742031302036
:104470007365637320666F7220612076616C696476
:1044800020726573756C74210A000000436F7272AC
:10449000656374206F7065726174696F6E207661F8
:1044A0006C6964617465642E2053656520524541D2
:1044B000444D452E6D6420666F722072756E2061CA
:1044C0006E64207265706F7274696E672072756CAD
:1044D00065732E0A0000000043616E6E6F742076D3
:1044E000616C6964617465206F7065726174696F75
:1044F0006E20666F722074686573652073656564ED
:104500002076616C7565732C20706C656173652015
:10451000636F6D706172652077697468207265736E
:10452000756C7473206F6E2061206B6E6F776E20D8
:10453000706C6174666F726D2E0A000010B50446CF
:1045400039A0FFF731FB21681FA0FFF72DFB616841
:1045500020A0FFF729FBA16821A0FFF725FBE16858
:1045600022A0FFF721FB216923A0FFF71DFB616952
:1045700024A0FFF719FBA16925A0FFF715FBE1694E
:1045800026A0FFF711FBFEE77146D7E77047000052
:10459000EFF30880F8E77047042071460842F7D02F
:1045A000EFF30980F0E7FEE706498A691302FCD4BD
:1045B0000A28086004D18A691302FCD40D220A601B
:1045C0007047000000000740723020203D20307806
:1045D00025780A00723120203D20307825780A00A5
:1045E000723220203D20307825780A007233202056
:1045F0003D20307825780A00723132203D20307815
:1046000025780A006C7220203D20307825780A0039
:10461000706320203D20307825780A007073722066
:104620003D20307825780A00496E20486172642068
:104630004661756C742048616E646C65720A000096
:1046400035303132000000003132333400000000D8
:104650002D383734000000002B31323200000000CA
:1046600033352E3534343030000000002E313233F3
:1046700034353030000000002D3131302E373030ED
:10468000000000002B302E363434303000000000A3
:10469000352E353030652B33000000002D2E3132A1
:1046A00033652D32000000002D3837652B3833324A
:1046B000000000002B302E36652D31320000000046
:1046C00054302E33652D3146000000002D542E54F9
:1046D0002B2B5471000000003154332E3465347A92
:1046E0000000000033342E30652D545E00000000C1
:1046F0000D485921016016210160882101600B4895
:10470000416841F4804141600948416841F002013B
:104710004160416841F00401416006488047024819
:1047200000210160044800470001004000020040F1
:1047300000700040CB400000FD47000010B5074965
:1047400079441831064C7C44163404E00A68081D8C
:10475000114488470146A142F8D110BD2C00000049
:10476000480000004EF68851CEF20001086840F47F
:1047700070000860BFF34F8FBFF36F8F4FF0007072
:10478000E1EE100A7047000043C7FFFF640000001D
:10479000340900200000000037C6FFFF9A00000027
:1047A000A20100000000002000F00DF8002801D058
:1047B000FFF7C4FFAFF300800020AFF30080FDF7E8
:1047C000CDFF00F002F80120704700F001B80000B2
:1047D00007463846FDF7E6F8FBE738B504460D46D0
:1047E000284600F005F8A84218BF0024204632BD34
:1047F0000149FFF7D9BE00BF6C080020AFF300806D
:10480000FFF7B0FFFFF7D0FF0078401E8041C043A4
:10481000C00F704700002E004300FFF7FEBFFFF7F8
:10482000FEBFFFF7FEBFFFF7FEBFFFF7FEBFFFF7BC
:10483000FEBFFFF7FEBFF021FFB0D44033796A140A
:10484000E7C1E3000052BE99110856D71F47070081
:1048500000475EBF39A4E53A8E848D0001F1FF0167
:10486000F1FF01F1FF01F1FF01F1FF01F1FF01F1A2
:1048700050011E66D3071003E02E0000010810034C
:1048800040460000480412500412580412600412FA
:104890006C04127804128404129004129C0412A86E
:1048A0000412B40412C00412CC0412D80412E4049A
:1048B0002C03001BB7000C2308431BB7044E8030A9
:1048C00008DF10273808111C100702040101340901
:1048D00000208404523404212661084004B00800FA
:1048E000209C080CF10B01F30914480452FF01F25B
:1048F000001614400200001848F4F212B46461017A
:074900008309482A52010B54
:04000005000046F1C0
:00000001FF
