:020000040000FA
:1000000080100020E901000029020000CD0100005D
:100010002D0200002F02000031020000000000004D
:10002000000000000000000000000000330200009B
:10003000350200000000000037020000650E0000DD
:100040003B0200003B0200003B0200003B020000BC
:100050003B0200003B0200003B0200003B020000AC
:100060003B0200003B0200003B0200003B0200009C
:100070003B0200003B0200003B0200003B0200008C
:100080003B0200003B0200003B0200003B0200007C
:100090003B0200003B0200003B0200003B0200006C
:1000A0003B0200003B0200003B0200003B0200005C
:1000B0003B0200003B0200003B0200003B0200004C
:1000C0003B0200003B0200003B0200003B0200003C
:1000D0003B0200003B0200003B0200003B0200002C
:1000E0003B0200003B0200003B0200003B0200001C
:1000F0003B0200003B0200003B0200003B0200000C
:100100003B0200003B0200003B0200003B020000FB
:100110003B0200003B0200003B0200003B020000EB
:100120003B0200003B0200003B0200003B020000DB
:100130003B0200003B0200003B0200003B020000CB
:100140003B0200003B0200003B0200003B020000BB
:100150003B0200003B0200003B0200003B020000AB
:100160003B0200003B0200003B0200003B0200009B
:100170003B0200003B0200003B0200003B0200008B
:100180003B0200003B0200003B0200003B0200007B
:100190003B0200003B0200003B0200003B0200006B
:1001A0003B0200003B0200003B0200003B0200005B
:1001B0003B0200003B020000DFF80CD000F0F4FA34
:1001C00000480047F92200008010002004207146FA
:1001D000084202D0EFF3098001E0EFF30880714696
:1001E000004A1047A10D000014484FF0590101606A
:1001F0004FF0160101604FF088010160104841681E
:1002000041F4804141600F48416841F00201416082
:10021000416841F0040141600B48804707484FF0B6
:100220000001016009480047FEE7FEE7FEE7FEE740
:10023000FEE7FEE7FEE7FEE7FEE7FEE7000100401F
:100240000002004000700040C10E0000B901000033
:100250002DE9F04D81EA030404F0004B21F0004544
:1002600014464FF0000A23F0004150EA050220D066
:1002700054EA01021DD0C5F30A570246C5F3130321
:10028000C1F31300C1F30A5640F4801543F4801300
:10029000A7EB0608101BD64608F2FD3873EB0500E5
:1002A00002D308F1010801E092185B41B8F1000F98
:1002B00003DA00200146BDE8F08D00204FF48011E4
:1002C000064684460EE0171B73EB050705D3121B89
:1002D00063EB050306434CEA010C49084FEA300082
:1002E00092185B4150EA0107EDD152EA030012D0A7
:1002F00082EA040083EA0501084305D0101BAB41E4
:1003000006D20122002306E000224FF0004302E063
:100310006FF0010253101AEB06004CEB085110EB82
:100320000A0041EB0B01BDE8F04D00F0AEB80EB590
:1003300040F2334102910021CDE900110A460B46FB
:1003400000F0B2F803B000BDC1F30A5210B5C1F31A
:10035000130140F2FF3341F480119A4201DA002088
:1003600010BD40F233439A42A2F2334203DC5242C0
:1003700000F07BF810BD904010BD000030B5041EA9
:1003800071F1000404DB4FF00044404264EB0101D2
:10039000141E73F1000405DB1C464FF0004352426B
:1003A00063EB04038B4208BF824230BD30B5041EAC
:1003B00071F1000404DB4FF00044404264EB0101A2
:1003C000141E73F1000405DB1C464FF0004352423B
:1003D00063EB0403994208BF904230BD30B50B4631
:1003E000014600202022012409E021FA02F59D4265
:1003F00005D303FA02F5491B04FA02F52844151E39
:10040000A2F10102F1DC30BD2DE9F05F05460020CC
:1004100092469B4688460646814640241BE0284675
:1004200041464746224600F020F853465A46C01A35
:10043000914110D311461846224600F0C7F92D1AF3
:1004400067EB01084F4622460120002100F0BEF96B
:1004500017EB00094E41201EA4F10104DFDC4846E1
:1004600031462A464346BDE8F09F202A04DB203A65
:1004700021FA02F00021704721FA02F3D040C2F1C4
:100480002002914008431946704710B5141E73F1BD
:10049000000408DA401C41F1000192185B411A4344
:1004A00001D120F0010010BD2DE9F04D92469B4690
:1004B00011B1B1FA81F202E0B0FA80F22032904636
:1004C00000F084F904460F4640EA0A0041EA0B01B5
:1004D00053465A46084313D0114653EA010019D037
:1004E000C8F140025046FFF7C0FF05460E46504691
:1004F0005946424600F06AF9084305D0012004E05D
:1005000020463946BDE8F08D0020054346EAE076F6
:100510002C4337430A986305E40AA0EB0800002245
:10052000FD0A44EA47540A3002D500200146E9E7B3
:10053000010510196941DDE9084500196941BDE867
:10054000F04DA2E72DE9FE4F804681EA0300C00F7F
:100550000C46009021F0004123F00045B8EB02006A
:10056000A94105D24046214690461C460B4602460C
:1005700023F00040104347D0270DC7F30A00C3F310
:100580000A510290401A019040286BDAC3F313001D
:1005900040F4801B0098924620B10023D2EB030A5E
:1005A00063EB0B0B01985946C0F14002504600F036
:1005B0000DF906460D4650465946019A00F015F9C8
:1005C00010EB08006141002487EA115284EAE773C6
:1005D0001A4340D0009A62B3019A012A4FEA0752A7
:1005E00015DC001B61EB02014FF0004202EA0752EA
:1005F000CDE90042001C41F5801132462B46FFF741
:1006000053FF03B0BDE8F08F40462146F9E7001BD9
:1006100061EB0201001C41F5801300185B412018BA
:10062000A2F5001747EB030140EAD570B6196D41FA
:1006300011E06D084FEA360645EAC0754FEA0752E9
:10064000001B61EB0201001C41F5801149084FEAD3
:1006500030000019514132462B4603B0BDE8F04F3F
:10066000FFF713BF0098012240000023D0EB0202E5
:1006700063EBE073009821464FEAE074B8EB0000AA
:1006800061EB0401E9E783F000435BE781F000419F
:1006900058E72DE9FE4F81EA030404F0004421F0FD
:1006A000004100944FF0000B23F0004350EA010496
:1006B0005ED052EA03045BD0C3F30A54C1F30A5577
:1006C0002C44A4F2F3340194A0FB0254C1F31301AF
:1006D00041F48011C3F3130343F4801301FB02447C
:1006E00000FB034E840A970A44EA815447EA835781
:1006F000A4FB076802958D0A05FB07854FEA932C3A
:1007000004FB0C542705029D4FEA065847EA1637AA
:10071000B5EB08056EEB070C870E920E47EA8117C2
:1007200042EA8312A7FB0201B6EB0B0164EB000463
:100730002B0D43EA0C335E1844EB1C50DA4651464D
:10074000E7FB0201C5F313044FEA0B3343EA1453EA
:100750004FEA0432019C43EA0603A4F10C0402941C
:10076000009CCDE900B4FFF79FFE03B0BDE8F08F19
:1007700000200146F9E7C1F30A52C1F3130140F228
:10078000FF3341F480119A4202DA0020014670479B
:1007900040F233439A42A2F2334202DC5242FFF764
:1007A00064BE00F013B80000064C074D06E0E06898
:1007B00040F0010394E8070098471034AC42F6D3A8
:1007C000FFF7FEFC1033000030330000202A04DB6A
:1007D000203A00FA02F1002070479140C2F1200354
:1007E00020FA03F3194390407047202A06DBCB1709
:1007F000203A41FA02F043EAE07306E041FA02F3DC
:10080000D040C2F1200291400843194670470000D1
:1008100000F01F01012202FA01F1044A800F02EBED
:10082000800002681143016070470000040200402C
:100830002DE9F04F4FF0804284B0D2F8403243F4BB
:100840008033C2F84032804CD2F8003288B343F093
:100850000403C2F80032D2F850324FF0100C3CEAD8
:10086000030318BF794B08D0D2F850523CEA050573
:1008700003D01D1EA3F10103F6DC4FF4002200BFDC
:10088000CDE90042DFF8C881724B01EB08029A42C1
:100890007DD800278A000120022303924A004FF0EE
:1008A000FF3C3E463D46DFF8B0A140F2012B0292EC
:1008B0002DE0FFE743F00103C2F80032D2F85032D6
:1008C0004FF0010C3CEA030318BF604B09D000BF96
:1008D000D2F850523CEA050503D01D1EA3F10103D6
:1008E000F6DC0022CCE700BFBCF1000F3CD00328AF
:1008F00008BF0420F8D0042808BF039902D00228BA
:1009000008BF0299022302E0BCF1000F29D0009A2F
:10091000B2FBF3F4A4F57419504AA9F51069914596
:100920009CBF0222C4F35D0918D800BF09FB02F482
:1009300004EB080ED6450ED8B4EB910F8CBFA4EB98
:100940009104C4EB9104644505D25FEA040C1F4690
:100950001646054602D0521C9345E7D25B1C202B5D
:10096000D2D9401C0428BFD93D4800EB85310198FD
:1009700008433C4901EB47210843B11E08434FF0AF
:100980008041C1F840020423D1F8500200E018E091
:1009900033EA000018BF2D4A09D000BFD1F8500239
:1009A00033EA000003D0101EA2F10102F6DC009829
:1009B00005FB07F1B0FBF1F0704304B04000BDE867
:1009C000F08F00280CBF44F21E2127494FF08040D1
:1009D000C0F840120246D0F85002042131EA00006B
:1009E00018BF1A4809D000BFD2F8503231EA0303C9
:1009F00003D0031EA0F10100F6DC1C4900200968A9
:100A00000091D2F8401211F4A02F1CBF04B0BDE831
:100A1000F08F11F4003F1EBF204604B0BDE8F08FF8
:100A2000C1F38132124B1DF80200C1F30802921C7F
:100A3000C1F344215A43491C11FB00F0B2FBF0F012
:100A400004B0C000BDE8F08F001BB7007FF52000A8
:100A5000800F05FD8074D21AC068780400093D003B
:100A600000C0FFFF00FEFFFF1E420800C40B000095
:100A7000C0C62D004FF08041D1F800221043C1F8CC
:100A80000002704710B500F0F5F90148006810BD8C
:100A90000000002010B500F0EDF90148006810BD1D
:100AA0000000002010B500F0E5F94FF08041D1F8CA
:100AB000340210F0070F144823D0D1F8342202F08A
:100AC0000702012A02BF0068400810BDD1F8342295
:100AD00002F00702022A02BF0068800810BDD1F8A8
:100AE000342202F00702032A02BF0068C00810BDCA
:100AF000D1F8341201F00701042902BF006800098F
:100B000010BD006810BD00000000002010B500F00E
:100B1000B1F94FF08041D1F8340210F0700F144851
:100B200023D0D1F8342202F07002102A02BF0068EC
:100B3000400810BDD1F8342202F07002202A02BF12
:100B40000068800810BDD1F8342202F07002302A0B
:100B500002BF0068C00810BDD1F8341201F0700166
:100B6000402902BF0068000910BD006810BD0000E8
:100B70000000002013A181B0096800914FF080416E
:100B80000020D1F8401211F4A02F1CBF01B0704713
:100B900011F4003F0C481CBF01B07047C1F3813213
:100BA000C1F30800801C094B1DF80220C1F3442149
:100BB0005843491C11FB02F1B0FBF1F0C00001B039
:100BC0007047000001020204001BB700C0C62D00E0
:100BD0002DE9F0414FF08045D5F8501201F0100694
:100BE0003F49884288BF0846D5F8001241F0040109
:100BF000C5F80012D5F8501210223A4C32EA010121
:100C000018BF234609D000BFD5F850C232EA0C0CF9
:100C100003D0191EA3F10103F6DCD5F8101241F040
:100C20000701C5F81012D5F8201221F00F01C5F800
:100C30002012D5F8001211F0010F014604D0002057
:100C4000FFF7F6FD804608E04FF40020FFF7F0FDC7
:100C50008046D5F8500200F010060221D5F8500267
:100C6000002300F01007D5F8000240F00400C5F89A
:100C70000002D5F85022102030EA020209D003E029
:100C8000221EA4F1010404DDD5F8502230EA02024C
:100C9000F6D1D5F8100240F00700C5F81002D5F8DB
:100CA000200220F00F001843C5F82002D5F81002EA
:100CB00020F007000843C5F8100200F0DBF82FB958
:100CC000D5F8000220F00400C5F800022EB9D5F8CE
:100CD000000220F00400C5F800024046BDE8F081A3
:100CE00000B0710B7FF5200030B410F47F3F1BD0B3
:100CF000C0F38143022B08BF174B09D04FF0030C00
:100D00003CEA904C0EBF154BDFF854C00CEB83034C
:100D1000D3F800C0C0F38724C0F34415AC402CEADC
:100D2000040C4CEA02021A6010F0606F04BF30BC81
:100D30007047C0F301720B4B03EB82021368C0F3E0
:100D4000426CC0F304500CFA00F023EA00000843A0
:100D5000106030BC704700002C02004030020040A0
:100D600020020040100200404FF080434FF0010C81
:100D7000D3F8501230EA010118BF08490CD006E040
:100D80000A1EA1F1010102DC4FF0000C04E0D3F8CF
:100D9000502230EA0202F3D1604670477FF520000E
:100DA000044612A000F05AF916A0216800F056F986
:100DB00017A0616800F052F918A0A16800F04EF980
:100DC00019A0E16800F04AF91AA0216900F046F97B
:100DD0001BA0616900F042F91CA0A16900F03EF976
:100DE0001DA0E16900F03AF9FEE70000496E2048D5
:100DF000617264204661756C742048616E646C6534
:100E0000720A0000723020203D20307825780A00D8
:100E1000723120203D20307825780A00723220205F
:100E20003D20307825780A00723320203D2030782C
:100E300025780A00723132203D20307825780A006A
:100E40006C7220203D20307825780A0070632020C5
:100E50003D20307825780A00707372203D2030786C
:100E600025780A0002480168491C016070470000AB
:100E70004800002010B5FFF77DFE0E4A4FF080437A
:100E80009060D3F8101201F0070102291CBF0A4834
:100E900050F82100D3F8201201F00F01491CB0FBDB
:100EA000F1F00649106000EB6100B0FBF1F050601A
:100EB00010BD0000000000200C00002040420F0088
:100EC0001A48016841F4700101601948C16C21F0B1
:100ED0000F0141F00801C1644FF08040D0F8981232
:100EE00041F48021C0F89812D0F8081241F00201B4
:100EF000C0F808120F49D1F8042102F0F732C1F806
:100F00000421D1F8082102F0F732C1F80821D0F805
:100F1000081221F00201C0F808124FF04020D0F86A
:100F2000401121F0F001C0F84011704788ED00E059
:100F300000C00040001004402DE9F041464B0F4630
:100F400004460FCB84B000258DE80F00A4F180414A
:100F50002E464FF08040B1F5E02119D0A4F1804138
:100F6000B1F5E2211BD0A4F18041B1F5E4211DD0FF
:100F7000A4F18041B1F5E62121D0A4F18041B1F581
:100F8000E82125D0A4F18041B1F5EA2129D02FE054
:100F9000D0F81412D0F82002C1F301651EE0D0F899
:100FA0001412D0F82002C1F381651FE0D0F81C12A2
:100FB000D0F83002C1F3016500F00F0618E0D0F858
:100FC0001C12D0F83002C1F38165C0F303160FE0A4
:100FD000D0F81C12D0F83002C1F30175C0F303261B
:100FE00006E0D0F81C12D0F830028D0FC0F30336A3
:100FF000002020630320E060A06820F0F00020F4CF
:101000007020A060E846012D02D1FFF7B3FD0190EA
:10101000002F04BF04B0BDE8F08158F82510721C01
:10102000B1FBF2F000EB5700B0FBF7F0801EB0F51B
:10103000803F38BF40F0405009D3B1FBF2F000EBE5
:10104000C700B0FBF7F06FF0010101EB1010606218
:1010500004B0BDE8F0810000803100000FB4054B02
:1010600010B503A9044A029800F0DAF810BC5DF844
:1010700014FB0000852200002C00002002E008C8BC
:10108000121F08C1002AFAD170477047002001E002
:1010900001C1121F002AFBD1704700002DE9FF5F3C
:1010A00082B00021DDE90430020DDDF840B00343D9
:1010B00018D044F61050A2F2FF3242431514119892
:1010C00001281FD0A5EB0B00401C5FEA000A4FF07F
:1010D00000064E4FDFF83891B046504615D5CAF19C
:1010E000000413E0119801244AA3012801D16FEAFA
:1010F0000B010298119AC0E90031C0E9024206B022
:10110000BDE8F09FCBF10000DFE704460021404A34
:10111000491842EB0450CDE9001012E0E00707D077
:1011200032463B4640464946FFF7B3FA8046894679
:1011300032463B4610461946FFF7ABFA06460F46C5
:101140006410002CEAD1DDE90401DDE90023BAF1E5
:10115000000F06DAFFF79DFA42464B46FFF799FA71
:1011600005E0FFF775F842464B46FFF771F8044675
:101170000E460022284BFFF719F903D84FF0FF3035
:10118000014607E00022254B20463146FFF7DAF9F9
:10119000FFF7F1FA102409E0002C0ADB0A220023F1
:1011A000FFF732F9039B30321A55641E50EA0102F0
:1011B000F2D1641C039AC4F111031444119A012A58
:1011C00003D0012208430DD10AE0084304D00020D7
:1011D0004FF0110B119072E7A3EB0B056D1E0DE0A4
:1011E0005B4504DD4FF0000205F1010504E003DA80
:1011F0004FF00002A5F10105002AECD002981199E8
:10120000C0E90231C0E9004579E700000000144060
:101210000000F03F300000000000F0430000E03F1D
:101220002DE9FF4F95B09B468946064600250FE203
:10123000252877D100242746F84A0121059400E0AB
:10124000044316F8013F203B01FA03F01042F7D1A6
:1012500030782A2811D06FF02F033078A0F13002B7
:10126000092A16D8059A44F0020402EB820203EB25
:1012700042021044761C0590EFE759F8042B0592C2
:10128000002A03DA504244F40054059044F002046A
:10129000761C30782E2816D116F8010F44F004047D
:1012A0002A280DD06FF02F023078A0F13003092BDF
:1012B00009D807EB870302EB4303C718761CF3E753
:1012C00059F8047B761C30786C280FD006DC4C284B
:1012D00017D068280DD06A2814D104E0742810D0E3
:1012E0007A280FD10DE044F400140AE044F480148D
:1012F00001E044F440147278824202D104F5801473
:10130000761C761C307866280BD013DC582877D0F2
:1013100009DC002875D04528F6D04628F4D04728A7
:101320001AD19DE118E0632835D0642879D065286A
:1013300012D195E1702873D008DC6728F1D06928B4
:101340006FD06E280DD06F2806D1B5E073282CD051
:10135000752875D0782874D05A46179990476D1C17
:1013600075E1C4F30250022809D003280DD0D9F842
:10137000001004280DD00D6009F1040967E1D9F8C7
:101380000010EA17C1E90052F6E7D9F800100D8005
:10139000F2E70D70F0E719F8041B8DF8001000203B
:1013A0008DF80100EA46012003E059F804AB4FF044
:1013B000FF3061074FF0000102D40DE008F1010198
:1013C0008846B9420FDA8045F8DB1AF80810002980
:1013D000F4D108E008F1010188468142FADB1AF8ED
:1013E00008100029F6D105985B46A0EB08072146B6
:1013F0003846179A00F094FA284400EB080507E0F5
:101400004DE029E10DE01AF8010B5A461799904773
:10141000B8F10108F7D25B4621463846179A13E126
:1014200042E00A220092C4F302524FF0000A022A5C
:1014300008D059F804CB032A4FEAEC710AD00DE02A
:1014400029E02AE009F1070121F00702F2E802C1D0
:10145000914609E00FFA8CFC4FEAEC71042A03D1A3
:101460004FFA8CFC4FEAEC71002907DA0A4600219A
:10147000DCF1000C61EB02012D2202E0220504D513
:101480002B228DF80420012203E0E20701D0202264
:10149000F7E7904659E00A2102E010220DE0102102
:1014A0004FF0000A00910BE010224FF0000A44F0C8
:1014B00004040827009203E008224FF0000A00927B
:1014C000C4F30252022A05D059F804CB0021032AA2
:1014D00008D009E009F1070121F00702F2E802C192
:1014E000914605E01FFA8CFC042A01D10CF0FF0C98
:1014F0004FF00008220728D5702806D0009B83F003
:10150000100353EA0A0305D00EE040228DF80420B0
:10151000012208E05CEA010206D030228DF80420A6
:101520008DF8050002229046009B83F0080353EAE1
:101530000A030AD15CEA010201D1620705D5302213
:101540008DF804204FF001087F1E582804D034A0E5
:1015500003900EA802900DE036A0F9E753466046CE
:10156000009AFEF751FF84460398825C0298401E61
:10157000029002705CEA0100F0D1029806A9081AF4
:1015800000F1200A600702D524F4803400E001272E
:10159000574502DDA7EB0A0000E0002000EB0A013E
:1015A000009005984144401A0590E00306D45B463C
:1015B0002146179A059800F0B3F90544002706E084
:1015C00001A85A46C05D179990476D1C7F1C47457E
:1015D000F6DBE0030CD55B462146179A059800F030
:1015E0009FF9054404E030205A46179990476D1C36
:1015F0000099481E00900029F5DC08E00298029945
:101600005A460078491C0291179990476D1CBAF10F
:101610000001AAF1010AF1DC65E1000009280100DE
:101620003031323334353637383961626364656658
:10163000000000003031323334353637383941421A
:10164000434445460000000000F058F90544761C6C
:10165000307800287FF4ECAD19B02846BDE8F08F53
:10166000620700D4062709F1070222F0070CFCE804
:101670000223E14603F000485FEA080C02D00FF2B3
:10168000702C0DE05FEA045C02D50FF2682C07E0D5
:101690005FEAC47C02D00FF2602C01E0AFF2700C64
:1016A0004FF0FF3823F00043CDF850C065280CD030
:1016B00006DC452809D046281DD047283DD13DE00D
:1016C000662818D067287ED138E00021112F01DB71
:1016D000112000E0781CCDE9000106A90EA8FFF753
:1016E000DDFCDDE90F010E9A03910021009207F164
:1016F000010A04914DE04FF000400097CDE9011040
:1017000006A90EA8FFF7CAFCDDE90F0203920E9BA3
:1017100011990022DDF80CA00093049211B9791CF4
:1017200000EB010AB7EB0A0004D4C0F1FF3007F167
:10173000010A0490AAEB0700019044E0012F00DAAF
:1017400001270021112F01DD112000E03846CDE9ED
:10175000000106A90EA8FFF7A1FCDDE90F010E9A12
:101760000391002104910092BA4621070CD40399F9
:10177000514500DA8A46BAF1010F05DD009AAAF157
:101780000101515C302908D0B84202DA10F1040F8F
:1017900006DA0121CDE9011015E0AAF10101E9E71E
:1017A000002805DC049901440491AAEB000102E041
:1017B000411C514500DD8A460499401A401C0190A5
:1017C0004FF000400290200704D40198504501DBFF
:1017D000CDF8048000208DF84F0002980DF14F07DE
:1017E000B0F1004F25D02B200E9002984FF0020848
:1017F00000280CDA404202902D200E9007E00A21CA
:101800000298FEF7EBFD3031029007F8011DB8F1A8
:101810000001A8F10108F2DC02980028EFD1791E3E
:101820000E980870307800F0200040F0450007F86E
:10183000020D12A8C01B00F107081498007800B12F
:10184000012000EB0A01019801EBE0710598414489
:10185000401A401E0590E00306D45B462146179AC5
:10186000059800F05DF805441498007818B15A46C0
:10187000179990476D1CE00324D55B462146179AC3
:10188000059800F04DF805441CE00498002807DB9B
:10189000DDE90301884203DD0098405C179901E00F
:1018A000179930205A469047049805F10105401CCD
:1018B00004900198401E019004D12E205A46179999
:1018C00090476D1CBAF10001AAF1010ADDDC05E0C8
:1018D00017F8010B5A46179990476D1CB8F1000193
:1018E000A8F10108F4DC5B462146179A0598ABE69F
:1018F0002D0000002B000000200000002DE9F04129
:10190000044600251E461746880404D405E03946DF
:101910002020B0476D1C641EF9D52846BDE8F08133
:101920002DE9F041044600251E469046C80301D526
:10193000302700E02027880404D505E041463846DA
:10194000B0476D1C641EF9D52846BDE8F081F0B59E
:10195000B0F900600746C6F3C01083B00C460028FB
:101960001EBF06F07F0003B0F0BD16F00700C6F3FF
:10197000C30141EA011112D0012818BF354622D017
:10198000218FA8B200F04CFC208705F07F0006F400
:101990007F41014341F08001398003B0F0BD22292D
:1019A000B8BF2221208FCDE90010D4E90510B4F989
:1019B0000230B4F9002000F00AF905B2E08F0028E7
:1019C00008BFE587DCE7228F04F1280000F0EEF87D
:1019D00005B2A08F002808BFA587D1E70020704777
:1019E00070B50E4615461146FFF7B1FF044629466D
:1019F0003046FFF7ACFF201A70BD6AB9028802F4C6
:101A00007F43C2F307221A4302800A8802F47F430D
:101A1000C2F307221A430A80B0F90200B1F902109A
:101A2000401A70472DE9F05F0023B0F904A0894601
:101A3000456A024698461F4669F31F469C46BAF11E
:101A4000000F47DD0CF0FF0060F30F062C46311449
:101A500008D484B16068B0F90200884218BF2468D5
:101A6000F7D108E03CB1D4F804B09BF800B083454E
:101A700018BF2468F6D100203DB100BFD5F800B0F2
:101A8000286028465FEA0B05F8D10546002C49D0AE
:101A900008F101001FFA80F86068B0F9000010F04A
:101AA000010F03D0C0F34020184483B2206830B146
:101AB000D0F800B0C4F800B02C6804602860002999
:101AC000A4BF481C60F31F460CF101000FFA80FC14
:101AD000D445B7DBC7EB8800184487B2B9F1000FD3
:101AE00004DD3049284600F04BFA05462868D0E965
:101AF0000081D8F804204260C8F804100168096821
:101B000001600020C8F800002846311448BF31B2F7
:101B100012D4D0B14268B2F902208A4218BF0068DC
:101B2000F7D110E0781C87B2286840680088C0F3BD
:101B30000020184483B2C2E738B1426812788A4262
:101B400018BF0068F8D1044601E02C684CB1686801
:101B50003946B0F9000000F03BFB24680746002C32
:101B6000F5D12868D8F804104268C8F8042041600C
:101B70000168C8F80010C0F8008000220A49284611
:101B800000F0FEF9046805464CB168683946B0F9C2
:101B9000000000F01DFB24680746002CF5D13846F4
:101BA000BDE8F09FE1190000FB19000038B51546AB
:101BB000D0E90123D0F800C0C468009121466046F6
:101BC00001F090F82946BDE8384000F001BB2DE94E
:101BD000F04F95B080460020DDE91E6A0A900B9018
:101BE0000C900F9010900D900E901190009001901D
:101BF0000D4602900390049005900690CDE90705EC
:101C00002878994693466F4660B10AA908A800F063
:101C10000AFA57F82010491C47F820100898007855
:101C20000028F2D105EB0800401B3044A0F1010868
:101C300098FBF6F02C4608950028C8BF0BF0FF0271
:101C400007DD21782C291CBF514021703444401EEF
:101C5000F7D10895287860B10AA908A800F0E3F93F
:101C600057F82010491C47F82010089800780028E1
:101C7000F2D198FBF6F008950028C8BF09F0FF02E2
:101C800007DD29782C291CBF514029703544401E9E
:101C9000F7D100240AAD57F82400514600F0E5FAC8
:101CA00055F824200146104600F0DFFA641C8246F5
:101CB000082CF0D315B0BDE8F08F00002DE9F04FEF
:101CC00000244FF0010C002A08BF0122002805D98A
:101CD000641C04FB04F5ED00A842F9D8491E601EFF
:101CE00021F0030101F1040B00FB00FE0BEB4E0A97
:101CF000002818BF002128D900E018B301FB00F428
:101D00000AEB44060BEB44054FF000044FEA0007D2
:101D10000CEB040909FB02F24FEAE27802EB1848E7
:101D20006FF30F08A2EB080209EB020826F8028BFA
:101D3000C84408F0FF0825F8028B04F101047F1E57
:101D4000E6D18444491C8142D7D30AEB4E01C3E952
:101D500001BA491E21F00301091DD9601860BDE8D0
:101D6000F08F00002DE9F84F4FF0000CA0F10108B2
:101D7000654666466746B8F1010F4DD9DFF8E8A021
:101D80000AF1100B0AF1200E1DE0E5B102EB0C0088
:101D9000731E0090401E15F0010F03D013F801CF01
:101DA00000F801CF5FEA550C08D05C78447013F856
:101DB000024F00F8024FBCF1010CF6D1009B2C2021
:101DC00009F1010C5855481C01B201F00700082820
:101DD0001CD2DFE800F00404040A0A0F0F15C1F357
:101DE000C10004255AF8206010E0C1F3C1005BF87F
:101DF000206003E0C1F3C1005EF82060082505E023
:101E00001A48C1F3C103082550F823600CEB0509FB
:101E100009F101004045B8D308F10100844538BFFD
:101E2000B0F1004F14D202EB0C01A0EB0C00491EE4
:101E300010F0010F18BF01F8017F400808BFBDE88E
:101E4000F88F4F7001F8027F401EFAD1BDE8F88F7D
:101E5000604598BFBDE8F88F02F80C700CF1010CDA
:101E60008445F9D3BDE8F88F6C0000209C00002069
:101E70002DE9F00F1423B0FBF3F0871E01EBC7042C
:101E800000234C600B606380D1F804C048F28003EB
:101E90000846ACF8003001F1080C231D103104EBAA
:101EA000870547F6FF794FF0FF36A1423CBF03F1AB
:101EB0000408A8450DD26146D0F80080C1F8008022
:101EC00001604B6019460CF1080C0E801B1DA1F837
:101ED00002900021002F22D982EA010606F00F08A5
:101EE0000E4668F3DF0646EA062A0CF10806A6420B
:101EF0003CBF03F10408A8450ED2E0460668C8F8C6
:101F00000060C0F80080C8F80430A3F800A0A3F86F
:101F100002900CF1080C1B1D491CB942DCD303686C
:101F20000121D3F800C0BCF1000F1FD0DFF848C07A
:101F3000ACFB074C4FEA9C048C4205D9D3F804C093
:101F4000ACF80210491C0BE081EA020C491C01F0BC
:101F500007054CEA052C5D68CCF30D0CA5F802C012
:101F60001B68D3F800C0BCF1000FE5D1BDE8F00F4D
:101F70000022024900F004B8CDCCCCCCFB19000003
:101F80002DE9F74F82464FF0010900BF5FEA0A05CD
:101F90004FF0000A5746D3463FD000262C46304625
:101FA0000BF1010BB9F1000FD8BFC84624DD24683E
:101FB000761C002C1CBF401C4845F8DBC846002E90
:101FC0001ADD7EB1B8F1000F18BF002C06D0DDE994
:101FD0000132616868689847002803DC28462D684C
:101FE000761E03E020462468A8F10108002F14BFE4
:101FF000386082460746E2E7B8F1000F02DD002CA8
:10200000DFD101E02500C8D100203860BBF1010F0D
:10201000C8BF4FEA4909B9DC01E00020006003B005
:102020005046BDE8F08F0368844600201A78002AE5
:1020300000F0CA802C2A5BD0A2F13000092833D8E6
:102040000A680420521C0A6013F8012F002A76D077
:102050002C2A7BD05EE0A2F13000092870D88A6972
:102060000720521C8A6113F8012F002A67D02C2AFE
:1020700067D16BE02B2A18BF2D2A77D0CA684FF0A2
:10208000010002F10102CA6060E0A2F130000928FB
:102090002FD88A680420521C8A6013F8012F002A66
:1020A0004DD02C2A52D035E02B2A18BF2D2A0AD029
:1020B0002E2A13D04A680120521C4A600A68521C1A
:1020C0005B1C0A6080E00A680220521C0A6013F858
:1020D000012F002A78D02C2A38D0D6E70A680520AC
:1020E000521C0A6013F8012F002A6DD02C2A2FD120
:1020F0002CE02E2A04D08A680120521C8A6025E038
:102100008A680520521C8A6013F8012FBAB12C2A64
:102110001ED11BE02E2A08D0303A092A12D813F813
:10212000012F62B12C2AF5D110E00A690520521C5A
:102130000A6113F8012F12B12C2A09D106E042E0FE
:102140002EE032E00A690120521C0A615B1C3BE070
:10215000452A18BF652A0AD0A2F13002092A10D8F0
:1021600013F8012F7AB32C2AF2D1EFE70EE04A6977
:102170000320521C4A6113F8012F22B32C2AE5D008
:1021800078E74A690120521C4A61DFE7CA680620E5
:10219000521CCA6013F8012FAAB12C2AD6D05AE7D4
:1021A0008A690120521C8A61D0E7303A092A05D891
:1021B00013F8012F3AB12C2AF7D1C7E74A6801205A
:1021C000521C4A60C2E7FFE7CCF8003070470000BD
:1021D0001FFA80FC0CF0FF005FF0080280EA0103A8
:1021E00013F0010F4FEA50001ABF4AF2010383EACD
:1021F00051014908521EF1D108464FEA1C2208211C
:102200004AF2010C82EA000313F0010F4FEA520276
:1022100014BF8CEA50004008491EF3D170470000FB
:102220000346C0B25FF0080280EA010C1CF0010F07
:102230004FEA50001ABF4AF2010C8CEA51014908DA
:10224000521EF1D108461A0A08214AF2010C00BFB9
:1022500082EA000313F0010F4FEA520214BF8CEA26
:1022600050004008491EF3D1704710B5044600B233
:10227000FFF7AEFF22140146BDE810401046FFF7FD
:10228000A7BF000007498A6912F4000FFBD108605C
:102290000A2818BF70478A6912F4000FFBD10D227B
:1022A0000A60704700000740062810D2DFE800F0FF
:1022B0000F0306080B0D074800687047064800E04A
:1022C0000648006870470648FBE70648F9E7002023
:1022D000704700003000002034000020380000204B
:1022E0003C000020400000200148006870470000CA
:1022F00048000020000000002DE9F04F2DED068B76
:1023000095B04FF0000A13A9574654464FF0FF36D8
:10231000D04614AA02AD881ECDF84CA000F04AFEAB
:102320000120FFF7C1FFADF808000220FFF7BCFF56
:10233000ADF80A000320FFF7B7FFADF80C0004204A
:10234000FFF7B2FF09900520FFF7AEFF0A900028C3
:1023500004BF07200A90BDF808006621002801BFCD
:10236000BDF80A000028BDF80C00002805D1ADF822
:1023700008A0ADF80AA0ADF80C10BDF808000128BF
:1023800001BFBDF80A000028BDF80C00002807D1E5
:1023900043F21540ADF80800ADF80A00ADF80C1096
:1023A000EB4804904FF4FA6008900A98ADF848A002
:1023B00010F0010F4FF0010B18BF01240A9810F024
:1023C000020F18BF641C0A9810F0040F18BF641C99
:1023D0000898B0FBF4F008900A9810F0010F06D0AE
:1023E0000899049801FB07004FF0010705900A982F
:1023F00010F0020F06D00899049801FB070007F1BE
:10240000010706900A9810F0040F04D00899049868
:1024100001FB070007904FF0000700BF07EB07190B
:1024200005EB890494F8200010F0010F06D035F96F
:102430002920E1680898FFF71BFD606294F82000EE
:1024400010F0020F0AD035F92900618804F1280341
:1024500040EA014221690898FFF730FC94F8200017
:1024600010F0040F05D035F9291062690898FFF7BC
:1024700079FC781C07043F0CD0D09FEDB7AB0998CE
:10248000002854D1B0EE4A8AF0EE6A8A9FEDB49BE0
:10249000CDF824B036E0099800EB800040000990A8
:1024A00000F032FEDDF82490ADF840A0ADF844A075
:1024B000002702ACADF842A0ADF846A0B9F1000F7C
:1024C00016D901212046FFF7ADFA218FFFF7A8FEAC
:1024D00020874FF0FF312046FFF7A4FA218FFFF746
:1024E0009FFE2087002F08BF60877F1C4F45E8D3E1
:1024F00000F02AFEFFF7F8FE00F032FEB0EE408A50
:10250000F0EE608A53EC192B51EC180BFDF736FFF7
:10251000C1D351EC180BFDF717FF002808BF0120AD
:102520000A21B1FBF0F00999401C4843099000F0E2
:10253000EBFD099FADF840A0ADF844A002ACADF8AA
:1025400042A0ADF846A04FF00009002F18D9012194
:102550002046FFF767FA218FFFF762FE20874FF0D2
:10256000FF312046FFF75EFA218FFFF759FE2087E3
:10257000B9F1000F08BF608709F10109B945E6D339
:1025800000F0E2FDFFF7B0FE0090BDF90800002169
:10259000FFF71EFEBDF90A2001461046FFF718FEA0
:1025A000BDF90C2001461046FFF712FE01460898BF
:1025B00000B2FFF70DFE47F60532811ADFF8A89149
:1025C0000190904204BF012668A024D010DC00F2E4
:1025D0000E70B0F5005004BF04266FA01BD000F6AB
:1025E0004320B0F5804F04BF022676A013D00AE046
:1025F000A1F56060FD3809D00D30B0F5C04F04BFC3
:1026000003267DA007D04FF0FF385BE0002686A0B0
:10261000FEF724FD01E0FEF721FDD9F800000028B7
:1026200018BF002788BFDFF830B24BD907EB07107F
:1026300005EB8004A4F840A094F8200010F0010FEE
:102640000DD0628F3BF816309A4208D0394683A0ED
:10265000FEF704FDB4F84000401CA4F8400094F8D4
:10266000200010F0020F0ED08848A28F30F81630EC
:102670009A4208D0394686A0FEF7F0FCB4F8400034
:10268000401CA4F8400094F8200010F0040F0ED075
:102690008C48E28F30F816309A4208D039468AA02A
:1026A000FEF7DCFCB4F84000401CA4F84000B4F88D
:1026B000400040440FFA80F8781C87B2D9F8000037
:1026C0008742B3D3FFF78AF9404407B28AA008993A
:1026D000FEF7C4FC8EA00099FEF7C0FC009800F045
:1026E0003FFD53EC102B90A0FEF7B8FC009800F0D3
:1026F00037FD53EC1A2B51EC100BFDF757FE17D298
:10270000009800F02DFD0998D9F80010B0EE408A2D
:10271000F0EE608A4843FDF70AFE53EC182BFDF7F4
:1027200097FD41EC100B86A053EC102BFEF796FCA6
:10273000009800F015FD9FED881B51EC100B53EC39
:10274000112BFDF71BFE00D20AE10EE10000000094
:10275000AC000020000000000000000000000000AD
:10276000000000000000F03F44000020366B20769F
:10277000616C69646174696F6E2072756E2070613E
:1027800072616D657465727320666F7220636F721B
:10279000656D61726B2E0A00324B2076616C696444
:1027A0006174696F6E2072756E20706172616D6503
:1027B0007465727320666F7220636F72656D6172EB
:1027C0006B2E0A0050726F66696C652067656E65D6
:1027D000726174696F6E2072756E20706172616DC6
:1027E000657465727320666F7220636F72656D61C8
:1027F000726B2E0A00000000324B20706572666F0B
:10280000726D616E63652072756E20706172616DAC
:10281000657465727320666F7220636F72656D6197
:10282000726B2E0A00000000366B20706572666FB6
:10283000726D616E63652072756E20706172616D7C
:10284000657465727320666F7220636F72656D6167
:10285000726B2E0A000000004C0000205B25755DA5
:102860004552524F5221206C697374206372632069
:10287000307825303478202D2073686F756C642093
:102880006265203078253034780A00005600002038
:102890005B25755D4552524F5221206D61747269FE
:1028A000782063726320307825303478202D2073AF
:1028B000686F756C64206265203078253034780A42
:1028C00000000000600000205B25755D4552524FFE
:1028D00052212073746174652063726320307825FF
:1028E000303478202D2073686F756C642062652009
:1028F0003078253034780A00436F72654D61726B11
:102900002053697A65202020203A20256C750A0022
:10291000546F74616C207469636B732020202020D5
:10292000203A20256C750A00546F74616C2074691C
:102930006D65202873656373293A2025660A0000B7
:10294000497465726174696F6E732F5365632020DB
:10295000203A2025660A0000000000000000244004
:102960005CA0FEF77BFB781C07B20998D9F8001031
:10297000414368A0FEF772FB6CA171A0FEF76EFBED
:1029800075A180A0FEF76AFB84A186A0FEF766FB16
:102990008AA00199FEF762FB0A9810F0010F1EBF92
:1029A000D9F80000002800240FD900BF04EB041060
:1029B00005EB80002146428F87A0FEF74FFB601C8D
:1029C00084B2D9F80000A042F0D80A9810F0020FA3
:1029D0001EBFD9F80000002800240ED904EB041013
:1029E00005EB80002146828F82A0FEF737FB601C3A
:1029F00084B2D9F80000A042F0D80A9810F0040F71
:102A000015D0D9F80000002818BF002425D011D90E
:102A100004EB041005EB80002146C28F7CA0FEF77A
:102A20001DFB601C84B2D9F80000A042F0D8D9F890
:102A3000000090B1002400280FD900BF04EB04105F
:102A400005EB80002146028F78A0FEF707FB601C93
:102A500084B2D9F80000A042F0D8002FC8BF7AA0F5
:102A600003D029DDFEF7FAFA29E07C48FEF7F6FAF2
:102A7000032E24D1009800F073FB0998D9F80010B8
:102A8000B0EE408AF0EE608A4843FDF750FC53EC0C
:102A9000182BFDF7DDFB41EC100B2FA123A0CDE996
:102AA000000153EC102B6EA0FEF7D8FA3BA173A0E7
:102AB000FEF7D4FA16A0D5E77248FEF7CFFA05F173
:102AC000420000F074FA15B00020BDEC068BBDE8A2
:102AD000F08F00004552524F5221204D75737420E3
:102AE0006578656375746520666F72206174206C0B
:102AF00065617374203130207365637320666F7273
:102B000020612076616C696420726573756C742134
:102B10000A000000497465726174696F6E73202049
:102B200020202020203A20256C750A0075566973F4
:102B3000696F6E20352E32362E322E3000000000A6
:102B4000436F6D70696C65722076657273696F6E24
:102B5000203A2025730A00002D2D6465766963658F
:102B600020444C4D202D4F33202D4F74696D65202E
:102B70002D2D617063733D696E746572776F726B32
:102B800000000000436F6D70696C657220666C61B7
:102B900067732020203A2025730A0000464C4153D9
:102BA000480000004D656D6F7279206C6F63617431
:102BB000696F6E20203A2025730A000073656564F2
:102BC000637263202020202020202020203A203003
:102BD00078253034780A00005B25645D6372636C8D
:102BE000697374202020202020203A20307825305E
:102BF00034780A005B25645D6372636D6174726989
:102C00007820202020203A203078253034780A009F
:102C10005B25645D6372637374617465202020209A
:102C200020203A203078253034780A005B25645D16
:102C300063726366696E616C2020202020203A2038
:102C40003078253034780A004572726F72732064D0
:102C5000657465637465640A000000001432000046
:102C6000436F72654D61726B20312E30203A202502
:102C700066202F202573202573000000202F20259B
:102C800073000000B03100002DE9F0010024A046DF
:102C9000A446002818BF002516D900E088B105FB1E
:102CA00000F301EB8306074633681C4494420FDDB2
:102CB0000CF10A0C0FFA8CFC0024361D98467F1E7E
:102CC000F2D16D1C8542E9D3BDE8F0016046704742
:102CD0004345CCBF4FF001084FF00008C4440FFA41
:102CE0008CFCEAE72DE9FF4F91B000261E98139A5D
:102CF00040F4704000B20C9011981E9900FB00F354
:102D00000B93002818BF5FEA030C14D010F00100E9
:102D100002D013880B44138084450CD932F810304C
:102D20000B4422F8103002EB4003801C5C88844581
:102D30000C445C80F2D8DDE91109DDF84C801E9D61
:102D4000002818BF002488BF470826D904FB00F1DB
:102D500008EB410209EB8101A2F1020CA1F104038D
:102D600010F0010F05D03CF9021F01FB05F143F8FB
:102D7000041F3A000BD000BFBCF902106943596030
:102D80003CF9041F694343F8081F521EF4D1641C28
:102D9000844202D20028D9D1F9E7DDE911010C9A69
:102DA000FFF772FF3146FFF713FA0190DDE911C812
:102DB000DDE913BABCF1000F18BF002484BF4FEA4D
:102DC0005C0900272CD9384648F82470BCF1000F64
:102DD00023D004FB0CF10BEB41018A1EAAF1020384
:102DE0001CF0010F05D032F8021F33F8025F11FB0F
:102DF000050000255FEA09010CD05688B3F802E00F
:102E000016FB0E0032F8046F33F804EF16FB0E5574
:102E1000491EF2D1284448F82400641C6445D2D3EA
:102E2000DDE911010C9AFFF72FFF0199FFF7D0F9A7
:102E30000190DDE911071399099114990D9100286A
:102E400018BF002588BF4FEA50083FD94FF0000651
:102E5000002835D9099A05FB00F102EB410A05FB70
:102E60000069002147F8291038B3331A0D9AAAF1E6
:102E7000020C02EB430310F0010F06D003EB4003FA
:102E80003CF8022F1C8812FB041100245FEA0802A0
:102E900010D000BFBCF802B033F810E01BFB0E11DD
:102EA00003EB80033CF804BFB3F800E01BFB0E44C7
:102EB000521EEFD1214447F82910761C8642CED30A
:102EC0006D1C854202D20028FAD0BFE7DDE911016E
:102ED0000C9AFFF7D9FE0199FFF77AF90190DDE925
:102EE000110813990A91DDF850B0002818BF002688
:102EF00088BF4FF000092DD94FF00004002823D9D6
:102F00000A9A06FB00F102EB410A06FB004E494615
:102F100048F82E90A8B152460BEB44034FEA000547
:102F200032F802CB1F881CFB07FCCCF38307CCF3E1
:102F3000461C17FB0C1103EB40036D1EF0D148F843
:102F40002E10641C8442E0D3761C864202D20028F4
:102F5000FAD0D1E7DDE911010C9AFFF795FE01994E
:102F6000FFF736F91E9A11995242139B0FFA82FC11
:102F700000291CBF0B9C002C15D011F0010102D0C0
:102F80001A8862441A808C420DD900BF33F8112090
:102F9000624423F8112003EB4102891C55888C42BE
:102FA00065445580F2D815B000B2BDE8F08F00211D
:102FB0000170704770B50546592084071621882294
:102FC000C4F80001C4F80011C4F80021D4F800319D
:102FD000002BF5D04FF04020D0F8401121F0F00147
:102FE000C0F840110120FDF745FD0120FDF7BCFEB2
:102FF0002048FDF7EDFD1120C4F834021E4E304686
:10300000FDF706FC002211463046FDF76DFEFDF788
:1030100031FFE06B20F47F00E063E06B40F4CC0014
:10302000E0630020C4F800014FF4E1311348FDF7DC
:1030300083FFFDF727FD014611A0FEF70FF8FDF70E
:1030400029FD014615A0FEF709F8FDF72BFD014605
:1030500018A0FEF703F8FDF759FD01461CA0FDF787
:10306000FDFF42F6E06121A0FDF7F8FF0120287086
:1030700070BD000000B0710B103D8057000007408C
:103080000D0A434C4B5F476574435055467265715A
:10309000203A202538640D0A00000000434C4B5FA5
:1030A00047657448434C4B46726571203A20253879
:1030B000640D0A00434C4B5F47657450434C4B30E2
:1030C00046726571203A202538640D0A0000000020
:1030D000434C4B5F47657450434C4B3146726571AE
:1030E000203A202538640D0A00000000436F726505
:1030F0006D61726B20737461727420282564206D79
:10310000732920210A0000000C48002101600C48AE
:103110004FF47A720068B0FBF2F0421EB2F1807F89
:1031200028BF70474FF0E0204261064BF02283F841
:10313000142D8161072101617047000048000020C3
:10314000000000200FE000E04FF0E020016921F0D6
:103150000101016100218161704700000000000051
:1031600010B5FDF7E4F89FED041B53EC112BFDF7B0
:103170006FF841EC100B10BD0000000000408F40C4
:10318000001BB7000000000000800000001BB7001B
:10319000001BB7000000000000800000001BB7000B
:1031A000001BB7000000000000800000001BB700FB
:1031B00043616E6E6F742076616C69646174652022
:1031C0006F7065726174696F6E20666F72207468CB
:1031D00065736520736565642076616C7565732C15
:1031E00020706C6561736520636F6D70617265201E
:1031F0007769746820726573756C7473206F6E20C4
:1032000061206B6E6F776E20706C6174666F726D8B
:103210002E0A0000436F7272656374206F706572CE
:103220006174696F6E2076616C6964617465642E87
:103230002053656520524541444D452E6D642066FE
:103240006F722072756E20616E64207265706F728D
:1032500074696E672072756C65732E0A0000000039
:1032600033352E3534343030000000002B302E360C
:1032700034343030000000002E31323334353030F9
:10328000000000002D3131302E37303000000000BA
:103290002D2E313233652D32000000002B302E36BA
:1032A000652D313200000000353031320000000061
:1032B0002B313232000000002D3837652B38333285
:1032C00000000000352E353030652B330000000043
:1032D00031323334000000002D3837340000000054
:1032E00054302E33652D31460000000033342E302B
:1032F000652D545E000000002D542E542B2B54716C
:10330000000000003154332E3465347A0000000090
:103310003033000000000020AC0000007C100000F2
:10332000DC330000AC000020D40F00008C10000043
:10333000001BB7000C000000001BB700001BB7000B
:1033400000800000000000001027000000000000C6
:103350000000000000000000001BB700000000009B
:10336000000000000000000066000000E02E0000E9
:10337000000000000100000000000000B0D4403355
:10338000796A14E7C1E352BE99110856D71F47075F
:10339000475EBF39A4E53A8E848D0000A832000054
:1033A000D0320000D8320000B0320000603200009D
:1033B00078320000843200006C320000C432000019
:1033C00090320000B83200009C320000E032000071
:0C33D000F832000004330000EC32000072
:04000005000001E90D
:00000001FF
